{
  "address": "0x11087e901dCF6C40772d733E0891Cd8C9e84Eba1",
  "abi": [
    {
      "inputs": [],
      "stateMutability": "nonpayable",
      "type": "constructor"
    },
    {
      "inputs": [
        {
          "internalType": "string",
          "name": "name",
          "type": "string"
        },
        {
          "internalType": "uint256",
          "name": "expires",
          "type": "uint256"
        },
        {
          "internalType": "uint256",
          "name": "duration",
          "type": "uint256"
        }
      ],
      "name": "premium",
      "outputs": [
        {
          "internalType": "uint256",
          "name": "",
          "type": "uint256"
        }
      ],
      "stateMutability": "view",
      "type": "function"
    },
    {
      "inputs": [
        {
          "internalType": "string",
          "name": "name",
          "type": "string"
        },
        {
          "internalType": "uint256",
          "name": "expires",
          "type": "uint256"
        },
        {
          "internalType": "uint256",
          "name": "duration",
          "type": "uint256"
        }
      ],
      "name": "price",
      "outputs": [
        {
          "components": [
            {
              "internalType": "uint256",
              "name": "base",
              "type": "uint256"
            },
            {
              "internalType": "uint256",
              "name": "premium",
              "type": "uint256"
            }
          ],
          "internalType": "struct IPriceOracle.Price",
          "name": "",
          "type": "tuple"
        }
      ],
      "stateMutability": "view",
      "type": "function"
    },
    {
      "inputs": [],
      "name": "price1Letter",
      "outputs": [
        {
          "internalType": "uint256",
          "name": "",
          "type": "uint256"
        }
      ],
      "stateMutability": "view",
      "type": "function"
    },
    {
      "inputs": [],
      "name": "price2Letter",
      "outputs": [
        {
          "internalType": "uint256",
          "name": "",
          "type": "uint256"
        }
      ],
      "stateMutability": "view",
      "type": "function"
    },
    {
      "inputs": [],
      "name": "price3Letter",
      "outputs": [
        {
          "internalType": "uint256",
          "name": "",
          "type": "uint256"
        }
      ],
      "stateMutability": "view",
      "type": "function"
    },
    {
      "inputs": [],
      "name": "price4Letter",
      "outputs": [
        {
          "internalType": "uint256",
          "name": "",
          "type": "uint256"
        }
      ],
      "stateMutability": "view",
      "type": "function"
    },
    {
      "inputs": [],
      "name": "price5Letter",
      "outputs": [
        {
          "internalType": "uint256",
          "name": "",
          "type": "uint256"
        }
      ],
      "stateMutability": "view",
      "type": "function"
    },
    {
      "inputs": [
        {
          "internalType": "bytes4",
          "name": "interfaceID",
          "type": "bytes4"
        }
      ],
      "name": "supportsInterface",
      "outputs": [
        {
          "internalType": "bool",
          "name": "",
          "type": "bool"
        }
      ],
      "stateMutability": "view",
      "type": "function"
    }
  ],
  "transactionHash": "0xa46450d4fa2bfd595989278e3f8b00ed0a3cc6720e307aaaf195ef38c58b94f6",
  "args": [],
  "numDeployments": 1,
  "solcInputHash": "a6dd5ed36ca3a151ffb615c330a0b07c",
  "bytecode": "0x61012060405234801561001157600080fd5b50660aa87bee53800060808181525050660110d9316ec00060a08181525050651b48eb57e00060c081815250506502ba7def300060e081815250506445d964b800610100818152505060805160a05160c05160e05161010051610afd6100c16000396000818161030f015261049301526000818161034a015261055a01526000818161038501526104b70152600081816103c0015261053601526000818161028701526103f30152610afd6000f3fe608060405234801561001057600080fd5b50600436106100885760003560e01c8063a200e1531161005b578063a200e15314610129578063a34e359614610147578063cd5d2c7414610177578063d820ed421461019557610088565b806301ffc9a71461008d5780632c0fd74c146100bd57806350e9a715146100db57806359b6b86c1461010b575b600080fd5b6100a760048036038101906100a291906107b6565b6101b3565b6040516100b491906107fe565b60405180910390f35b6100c5610285565b6040516100d29190610832565b60405180910390f35b6100f560048036038101906100f091906108de565b6102a9565b6040516101029190610990565b60405180910390f35b610113610491565b6040516101209190610832565b60405180910390f35b6101316104b5565b60405161013e9190610832565b60405180910390f35b610161600480360381019061015c91906108de565b6104d9565b60405161016e9190610832565b60405180910390f35b61017f610534565b60405161018c9190610832565b60405180910390f35b61019d610558565b6040516101aa9190610832565b60405180910390f35b60007f01ffc9a7000000000000000000000000000000000000000000000000000000007bffffffffffffffffffffffffffffffffffffffffffffffffffffffff1916827bffffffffffffffffffffffffffffffffffffffffffffffffffffffff1916148061027e57507f50e9a715000000000000000000000000000000000000000000000000000000007bffffffffffffffffffffffffffffffffffffffffffffffffffffffff1916827bffffffffffffffffffffffffffffffffffffffffffffffffffffffff1916145b9050919050565b7f000000000000000000000000000000000000000000000000000000000000000081565b6102b161073a565b600061030086868080601f016020809104026020016040519081016040528093929190818152602001838380828437600081840152601f19601f8201169050808301925050505050505061057c565b905060006005821061033f57837f000000000000000000000000000000000000000000000000000000000000000061033891906109da565b9050610422565b6004820361037a57837f000000000000000000000000000000000000000000000000000000000000000061037391906109da565b9050610421565b600382036103b557837f00000000000000000000000000000000000000000000000000000000000000006103ae91906109da565b9050610420565b600282036103f057837f00000000000000000000000000000000000000000000000000000000000000006103e991906109da565b905061041f565b837f000000000000000000000000000000000000000000000000000000000000000061041c91906109da565b90505b5b5b5b604051806040016040528082815260200161048289898080601f016020809104026020016040519081016040528093929190818152602001838380828437600081840152601f19601f820116905080830192505050505050508888610731565b81525092505050949350505050565b7f000000000000000000000000000000000000000000000000000000000000000081565b7f000000000000000000000000000000000000000000000000000000000000000081565b600061052a85858080601f016020809104026020016040519081016040528093929190818152602001838380828437600081840152601f19601f820116905080830192505050505050508484610731565b9050949350505050565b7f000000000000000000000000000000000000000000000000000000000000000081565b7f000000000000000000000000000000000000000000000000000000000000000081565b60008060008084519050600092505b808210156107265760008583815181106105a8576105a7610a1c565b5b602001015160f81c60f81b9050608060f81b817effffffffffffffffffffffffffffffffffffffffffffffffffffffffffffff191610156105f7576001836105f09190610a4b565b9250610712565b60e060f81b817effffffffffffffffffffffffffffffffffffffffffffffffffffffffffffff19161015610639576002836106329190610a4b565b9250610711565b60f060f81b817effffffffffffffffffffffffffffffffffffffffffffffffffffffffffffff1916101561067b576003836106749190610a4b565b9250610710565b60f8801b817effffffffffffffffffffffffffffffffffffffffffffffffffffffffffffff191610156106bc576004836106b59190610a4b565b925061070f565b60fc60f81b817effffffffffffffffffffffffffffffffffffffffffffffffffffffffffffff191610156106fe576005836106f79190610a4b565b925061070e565b60068361070b9190610a4b565b92505b5b5b5b5b50828061071e90610a7f565b93505061058b565b829350505050919050565b60009392505050565b604051806040016040528060008152602001600081525090565b600080fd5b600080fd5b60007fffffffff0000000000000000000000000000000000000000000000000000000082169050919050565b6107938161075e565b811461079e57600080fd5b50565b6000813590506107b08161078a565b92915050565b6000602082840312156107cc576107cb610754565b5b60006107da848285016107a1565b91505092915050565b60008115159050919050565b6107f8816107e3565b82525050565b600060208201905061081360008301846107ef565b92915050565b6000819050919050565b61082c81610819565b82525050565b60006020820190506108476000830184610823565b92915050565b600080fd5b600080fd5b600080fd5b60008083601f8401126108725761087161084d565b5b8235905067ffffffffffffffff81111561088f5761088e610852565b5b6020830191508360018202830111156108ab576108aa610857565b5b9250929050565b6108bb81610819565b81146108c657600080fd5b50565b6000813590506108d8816108b2565b92915050565b600080600080606085870312156108f8576108f7610754565b5b600085013567ffffffffffffffff81111561091657610915610759565b5b6109228782880161085c565b94509450506020610935878288016108c9565b9250506040610946878288016108c9565b91505092959194509250565b61095b81610819565b82525050565b6040820160008201516109776000850182610952565b50602082015161098a6020850182610952565b50505050565b60006040820190506109a56000830184610961565b92915050565b7f4e487b7100000000000000000000000000000000000000000000000000000000600052601160045260246000fd5b60006109e582610819565b91506109f083610819565b92508282026109fe81610819565b91508282048414831517610a1557610a146109ab565b5b5092915050565b7f4e487b7100000000000000000000000000000000000000000000000000000000600052603260045260246000fd5b6000610a5682610819565b9150610a6183610819565b9250828201905080821115610a7957610a786109ab565b5b92915050565b6000610a8a82610819565b91507fffffffffffffffffffffffffffffffffffffffffffffffffffffffffffffffff8203610abc57610abb6109ab565b5b60018201905091905056fea2646970667358221220e89213f341e975dbae4269c35532e11b83906df002fd266cfe4d2844f7f57dc964736f6c63430008110033",
  "devdoc": {
    "kind": "dev",
    "methods": {
      "premium(string,uint256,uint256)": {
        "details": "Returns the pricing premium in wei."
      },
      "price(string,uint256,uint256)": {
        "details": "Returns the price to register or renew a name.",
        "params": {
          "duration": "How long the name is being registered or extended for, in seconds.",
          "expires": "When the name presently expires (0 if this is a new registration).",
          "name": "The name being registered or renewed."
        },
        "returns": {
          "_0": "base premium tuple of base price + premium price"
        }
      }
    },
    "version": 1
  },
  "userdoc": {
    "kind": "user",
    "methods": {},
    "version": 1
  },
  "storageLayout": {
    "storage": [],
    "types": null
  }
}