{
  "address": "0x34bE6E7dc684D4515F7fCc5D5581809664cEBbd4",
  "abi": [
    {
      "inputs": [
        {
          "internalType": "contract FNS",
          "name": "_fns",
          "type": "address"
        },
        {
          "internalType": "bytes32",
          "name": "_baseNode",
          "type": "bytes32"
        }
      ],
      "stateMutability": "nonpayable",
      "type": "constructor"
    },
    {
      "anonymous": false,
      "inputs": [
        {
          "indexed": true,
          "internalType": "address",
          "name": "owner",
          "type": "address"
        },
        {
          "indexed": true,
          "internalType": "address",
          "name": "approved",
          "type": "address"
        },
        {
          "indexed": true,
          "internalType": "uint256",
          "name": "tokenId",
          "type": "uint256"
        }
      ],
      "name": "Approval",
      "type": "event"
    },
    {
      "anonymous": false,
      "inputs": [
        {
          "indexed": true,
          "internalType": "address",
          "name": "owner",
          "type": "address"
        },
        {
          "indexed": true,
          "internalType": "address",
          "name": "operator",
          "type": "address"
        },
        {
          "indexed": false,
          "internalType": "bool",
          "name": "approved",
          "type": "bool"
        }
      ],
      "name": "ApprovalForAll",
      "type": "event"
    },
    {
      "anonymous": false,
      "inputs": [
        {
          "indexed": true,
          "internalType": "address",
          "name": "controller",
          "type": "address"
        }
      ],
      "name": "ControllerAdded",
      "type": "event"
    },
    {
      "anonymous": false,
      "inputs": [
        {
          "indexed": true,
          "internalType": "address",
          "name": "controller",
          "type": "address"
        }
      ],
      "name": "ControllerRemoved",
      "type": "event"
    },
    {
      "anonymous": false,
      "inputs": [
        {
          "indexed": true,
          "internalType": "uint256",
          "name": "id",
          "type": "uint256"
        },
        {
          "indexed": true,
          "internalType": "address",
          "name": "owner",
          "type": "address"
        },
        {
          "indexed": false,
          "internalType": "uint256",
          "name": "expires",
          "type": "uint256"
        }
      ],
      "name": "NameMigrated",
      "type": "event"
    },
    {
      "anonymous": false,
      "inputs": [
        {
          "indexed": true,
          "internalType": "uint256",
          "name": "id",
          "type": "uint256"
        },
        {
          "indexed": true,
          "internalType": "address",
          "name": "owner",
          "type": "address"
        },
        {
          "indexed": false,
          "internalType": "uint256",
          "name": "expires",
          "type": "uint256"
        }
      ],
      "name": "NameRegistered",
      "type": "event"
    },
    {
      "anonymous": false,
      "inputs": [
        {
          "indexed": true,
          "internalType": "uint256",
          "name": "id",
          "type": "uint256"
        },
        {
          "indexed": false,
          "internalType": "uint256",
          "name": "expires",
          "type": "uint256"
        }
      ],
      "name": "NameRenewed",
      "type": "event"
    },
    {
      "anonymous": false,
      "inputs": [
        {
          "indexed": true,
          "internalType": "address",
          "name": "previousOwner",
          "type": "address"
        },
        {
          "indexed": true,
          "internalType": "address",
          "name": "newOwner",
          "type": "address"
        }
      ],
      "name": "OwnershipTransferred",
      "type": "event"
    },
    {
      "anonymous": false,
      "inputs": [
        {
          "indexed": true,
          "internalType": "address",
          "name": "from",
          "type": "address"
        },
        {
          "indexed": true,
          "internalType": "address",
          "name": "to",
          "type": "address"
        },
        {
          "indexed": true,
          "internalType": "uint256",
          "name": "tokenId",
          "type": "uint256"
        }
      ],
      "name": "Transfer",
      "type": "event"
    },
    {
      "inputs": [],
      "name": "GRACE_PERIOD",
      "outputs": [
        {
          "internalType": "uint256",
          "name": "",
          "type": "uint256"
        }
      ],
      "stateMutability": "view",
      "type": "function"
    },
    {
      "inputs": [
        {
          "internalType": "address",
          "name": "controller",
          "type": "address"
        }
      ],
      "name": "addController",
      "outputs": [],
      "stateMutability": "nonpayable",
      "type": "function"
    },
    {
      "inputs": [
        {
          "internalType": "address",
          "name": "to",
          "type": "address"
        },
        {
          "internalType": "uint256",
          "name": "tokenId",
          "type": "uint256"
        }
      ],
      "name": "approve",
      "outputs": [],
      "stateMutability": "nonpayable",
      "type": "function"
    },
    {
      "inputs": [
        {
          "internalType": "uint256",
          "name": "id",
          "type": "uint256"
        }
      ],
      "name": "available",
      "outputs": [
        {
          "internalType": "bool",
          "name": "",
          "type": "bool"
        }
      ],
      "stateMutability": "view",
      "type": "function"
    },
    {
      "inputs": [
        {
          "internalType": "address",
          "name": "owner",
          "type": "address"
        }
      ],
      "name": "balanceOf",
      "outputs": [
        {
          "internalType": "uint256",
          "name": "",
          "type": "uint256"
        }
      ],
      "stateMutability": "view",
      "type": "function"
    },
    {
      "inputs": [],
      "name": "baseNode",
      "outputs": [
        {
          "internalType": "bytes32",
          "name": "",
          "type": "bytes32"
        }
      ],
      "stateMutability": "view",
      "type": "function"
    },
    {
      "inputs": [
        {
          "internalType": "address",
          "name": "",
          "type": "address"
        }
      ],
      "name": "controllers",
      "outputs": [
        {
          "internalType": "bool",
          "name": "",
          "type": "bool"
        }
      ],
      "stateMutability": "view",
      "type": "function"
    },
    {
      "inputs": [
        {
          "internalType": "uint256",
          "name": "",
          "type": "uint256"
        }
      ],
      "name": "expiries",
      "outputs": [
        {
          "internalType": "uint256",
          "name": "",
          "type": "uint256"
        }
      ],
      "stateMutability": "view",
      "type": "function"
    },
    {
      "inputs": [],
      "name": "fns",
      "outputs": [
        {
          "internalType": "contract FNS",
          "name": "",
          "type": "address"
        }
      ],
      "stateMutability": "view",
      "type": "function"
    },
    {
      "inputs": [
        {
          "internalType": "uint256",
          "name": "tokenId",
          "type": "uint256"
        }
      ],
      "name": "getApproved",
      "outputs": [
        {
          "internalType": "address",
          "name": "",
          "type": "address"
        }
      ],
      "stateMutability": "view",
      "type": "function"
    },
    {
      "inputs": [
        {
          "internalType": "address",
          "name": "owner",
          "type": "address"
        },
        {
          "internalType": "address",
          "name": "operator",
          "type": "address"
        }
      ],
      "name": "isApprovedForAll",
      "outputs": [
        {
          "internalType": "bool",
          "name": "",
          "type": "bool"
        }
      ],
      "stateMutability": "view",
      "type": "function"
    },
    {
      "inputs": [
        {
          "internalType": "uint256",
          "name": "id",
          "type": "uint256"
        }
      ],
      "name": "name",
      "outputs": [
        {
          "internalType": "string",
          "name": "",
          "type": "string"
        }
      ],
      "stateMutability": "view",
      "type": "function"
    },
    {
      "inputs": [],
      "name": "name",
      "outputs": [
        {
          "internalType": "string",
          "name": "",
          "type": "string"
        }
      ],
      "stateMutability": "view",
      "type": "function"
    },
    {
      "inputs": [
        {
          "internalType": "uint256",
          "name": "id",
          "type": "uint256"
        }
      ],
      "name": "nameExpires",
      "outputs": [
        {
          "internalType": "uint256",
          "name": "",
          "type": "uint256"
        }
      ],
      "stateMutability": "view",
      "type": "function"
    },
    {
      "inputs": [],
      "name": "owner",
      "outputs": [
        {
          "internalType": "address",
          "name": "",
          "type": "address"
        }
      ],
      "stateMutability": "view",
      "type": "function"
    },
    {
      "inputs": [
        {
          "internalType": "uint256",
          "name": "tokenId",
          "type": "uint256"
        }
      ],
      "name": "ownerOf",
      "outputs": [
        {
          "internalType": "address",
          "name": "",
          "type": "address"
        }
      ],
      "stateMutability": "view",
      "type": "function"
    },
    {
      "inputs": [
        {
          "internalType": "uint256",
          "name": "id",
          "type": "uint256"
        },
        {
          "internalType": "address",
          "name": "_owner",
          "type": "address"
        }
      ],
      "name": "reclaim",
      "outputs": [],
      "stateMutability": "nonpayable",
      "type": "function"
    },
    {
      "inputs": [
        {
          "internalType": "string",
          "name": "_name",
          "type": "string"
        },
        {
          "internalType": "address",
          "name": "_owner",
          "type": "address"
        },
        {
          "internalType": "uint256",
          "name": "duration",
          "type": "uint256"
        },
        {
          "internalType": "address",
          "name": "resolver",
          "type": "address"
        }
      ],
      "name": "register",
      "outputs": [
        {
          "internalType": "uint256",
          "name": "",
          "type": "uint256"
        }
      ],
      "stateMutability": "nonpayable",
      "type": "function"
    },
    {
      "inputs": [
        {
          "internalType": "string",
          "name": "_name",
          "type": "string"
        },
        {
          "internalType": "address",
          "name": "_owner",
          "type": "address"
        },
        {
          "internalType": "uint256",
          "name": "duration",
          "type": "uint256"
        }
      ],
      "name": "registerOnly",
      "outputs": [
        {
          "internalType": "uint256",
          "name": "",
          "type": "uint256"
        }
      ],
      "stateMutability": "nonpayable",
      "type": "function"
    },
    {
      "inputs": [
        {
          "internalType": "address",
          "name": "controller",
          "type": "address"
        }
      ],
      "name": "removeController",
      "outputs": [],
      "stateMutability": "nonpayable",
      "type": "function"
    },
    {
      "inputs": [
        {
          "internalType": "uint256",
          "name": "id",
          "type": "uint256"
        },
        {
          "internalType": "uint256",
          "name": "duration",
          "type": "uint256"
        }
      ],
      "name": "renew",
      "outputs": [
        {
          "internalType": "uint256",
          "name": "",
          "type": "uint256"
        }
      ],
      "stateMutability": "nonpayable",
      "type": "function"
    },
    {
      "inputs": [],
      "name": "renounceOwnership",
      "outputs": [],
      "stateMutability": "nonpayable",
      "type": "function"
    },
    {
      "inputs": [
        {
          "internalType": "address",
          "name": "from",
          "type": "address"
        },
        {
          "internalType": "address",
          "name": "to",
          "type": "address"
        },
        {
          "internalType": "uint256",
          "name": "tokenId",
          "type": "uint256"
        }
      ],
      "name": "safeTransferFrom",
      "outputs": [],
      "stateMutability": "nonpayable",
      "type": "function"
    },
    {
      "inputs": [
        {
          "internalType": "address",
          "name": "from",
          "type": "address"
        },
        {
          "internalType": "address",
          "name": "to",
          "type": "address"
        },
        {
          "internalType": "uint256",
          "name": "tokenId",
          "type": "uint256"
        },
        {
          "internalType": "bytes",
          "name": "data",
          "type": "bytes"
        }
      ],
      "name": "safeTransferFrom",
      "outputs": [],
      "stateMutability": "nonpayable",
      "type": "function"
    },
    {
      "inputs": [
        {
          "internalType": "address",
          "name": "operator",
          "type": "address"
        },
        {
          "internalType": "bool",
          "name": "approved",
          "type": "bool"
        }
      ],
      "name": "setApprovalForAll",
      "outputs": [],
      "stateMutability": "nonpayable",
      "type": "function"
    },
    {
      "inputs": [
        {
          "internalType": "string",
          "name": "baseURI",
          "type": "string"
        }
      ],
      "name": "setBaseURI",
      "outputs": [],
      "stateMutability": "nonpayable",
      "type": "function"
    },
    {
      "inputs": [
        {
          "internalType": "address",
          "name": "resolver",
          "type": "address"
        }
      ],
      "name": "setResolver",
      "outputs": [],
      "stateMutability": "nonpayable",
      "type": "function"
    },
    {
      "inputs": [
        {
          "internalType": "bytes4",
          "name": "interfaceId",
          "type": "bytes4"
        }
      ],
      "name": "supportsInterface",
      "outputs": [
        {
          "internalType": "bool",
          "name": "",
          "type": "bool"
        }
      ],
      "stateMutability": "view",
      "type": "function"
    },
    {
      "inputs": [],
      "name": "symbol",
      "outputs": [
        {
          "internalType": "string",
          "name": "",
          "type": "string"
        }
      ],
      "stateMutability": "view",
      "type": "function"
    },
    {
      "inputs": [
        {
          "internalType": "uint256",
          "name": "index",
          "type": "uint256"
        }
      ],
      "name": "tokenByIndex",
      "outputs": [
        {
          "internalType": "uint256",
          "name": "",
          "type": "uint256"
        }
      ],
      "stateMutability": "view",
      "type": "function"
    },
    {
      "inputs": [
        {
          "internalType": "address",
          "name": "owner",
          "type": "address"
        },
        {
          "internalType": "uint256",
          "name": "index",
          "type": "uint256"
        }
      ],
      "name": "tokenOfOwnerByIndex",
      "outputs": [
        {
          "internalType": "uint256",
          "name": "",
          "type": "uint256"
        }
      ],
      "stateMutability": "view",
      "type": "function"
    },
    {
      "inputs": [
        {
          "internalType": "uint256",
          "name": "tokenId",
          "type": "uint256"
        }
      ],
      "name": "tokenURI",
      "outputs": [
        {
          "internalType": "string",
          "name": "",
          "type": "string"
        }
      ],
      "stateMutability": "view",
      "type": "function"
    },
    {
      "inputs": [],
      "name": "totalSupply",
      "outputs": [
        {
          "internalType": "uint256",
          "name": "",
          "type": "uint256"
        }
      ],
      "stateMutability": "view",
      "type": "function"
    },
    {
      "inputs": [
        {
          "internalType": "address",
          "name": "from",
          "type": "address"
        },
        {
          "internalType": "address",
          "name": "to",
          "type": "address"
        },
        {
          "internalType": "uint256",
          "name": "tokenId",
          "type": "uint256"
        }
      ],
      "name": "transferFrom",
      "outputs": [],
      "stateMutability": "nonpayable",
      "type": "function"
    },
    {
      "inputs": [
        {
          "internalType": "address",
          "name": "newOwner",
          "type": "address"
        }
      ],
      "name": "transferOwnership",
      "outputs": [],
      "stateMutability": "nonpayable",
      "type": "function"
    }
  ],
  "transactionHash": "0x5a56999da6f5bfa0c95569820d93e35560f9544ef32233851868e3f6ca2a558e",
  "args": [
    "0xD7E020247e1e1686F50Bb4246Ca1AdFDC4609723",
    "0x78f6b1389af563cc5c91f234ea46b055e49658d8b999eeb9e0baef7dbbc93fdb"
  ],
  "numDeployments": 1,
  "solcInputHash": "a6dd5ed36ca3a151ffb615c330a0b07c",
  "bytecode": "0x60806040523480156200001157600080fd5b50604051620054cf380380620054cf8339818101604052810190620000379190620002c0565b6040518060400160405280600381526020017f464e5300000000000000000000000000000000000000000000000000000000008152506040518060400160405280600381526020017f464e5300000000000000000000000000000000000000000000000000000000008152508160009081620000b4919062000581565b508060019081620000c6919062000581565b505050620000e9620000dd6200013960201b60201c565b6200014160201b60201c565b81600c60006101000a81548173ffffffffffffffffffffffffffffffffffffffff021916908373ffffffffffffffffffffffffffffffffffffffff16021790555080600d81905550505062000668565b600033905090565b6000600a60009054906101000a900473ffffffffffffffffffffffffffffffffffffffff16905081600a60006101000a81548173ffffffffffffffffffffffffffffffffffffffff021916908373ffffffffffffffffffffffffffffffffffffffff1602179055508173ffffffffffffffffffffffffffffffffffffffff168173ffffffffffffffffffffffffffffffffffffffff167f8be0079c531659141344cd1fd0a4f28419497f9722a3daafe3b4186f6b6457e060405160405180910390a35050565b600080fd5b600073ffffffffffffffffffffffffffffffffffffffff82169050919050565b600062000239826200020c565b9050919050565b60006200024d826200022c565b9050919050565b6200025f8162000240565b81146200026b57600080fd5b50565b6000815190506200027f8162000254565b92915050565b6000819050919050565b6200029a8162000285565b8114620002a657600080fd5b50565b600081519050620002ba816200028f565b92915050565b60008060408385031215620002da57620002d962000207565b5b6000620002ea858286016200026e565b9250506020620002fd85828601620002a9565b9150509250929050565b600081519050919050565b7f4e487b7100000000000000000000000000000000000000000000000000000000600052604160045260246000fd5b7f4e487b7100000000000000000000000000000000000000000000000000000000600052602260045260246000fd5b600060028204905060018216806200038957607f821691505b6020821081036200039f576200039e62000341565b5b50919050565b60008190508160005260206000209050919050565b60006020601f8301049050919050565b600082821b905092915050565b600060088302620004097fffffffffffffffffffffffffffffffffffffffffffffffffffffffffffffffff82620003ca565b620004158683620003ca565b95508019841693508086168417925050509392505050565b6000819050919050565b6000819050919050565b6000620004626200045c62000456846200042d565b62000437565b6200042d565b9050919050565b6000819050919050565b6200047e8362000441565b620004966200048d8262000469565b848454620003d7565b825550505050565b600090565b620004ad6200049e565b620004ba81848462000473565b505050565b5b81811015620004e257620004d6600082620004a3565b600181019050620004c0565b5050565b601f8211156200053157620004fb81620003a5565b6200050684620003ba565b8101602085101562000516578190505b6200052e6200052585620003ba565b830182620004bf565b50505b505050565b600082821c905092915050565b6000620005566000198460080262000536565b1980831691505092915050565b600062000571838362000543565b9150826002028217905092915050565b6200058c8262000307565b67ffffffffffffffff811115620005a857620005a762000312565b5b620005b4825462000370565b620005c1828285620004e6565b600060209050601f831160018114620005f95760008415620005e4578287015190505b620005f0858262000563565b86555062000660565b601f1984166200060986620003a5565b60005b8281101562000633578489015182556001820191506020850194506020810190506200060c565b868310156200065357848901516200064f601f89168262000543565b8355505b6001600288020188555050505b505050505050565b614e5780620006786000396000f3fe608060405234801561001057600080fd5b50600436106102105760003560e01c80638da5cb5b11610125578063c475abff116100ad578063ddf7fcb01161007c578063ddf7fcb01461066f578063e0aade541461068d578063e985e9c5146106bd578063f2fde38b146106ed578063f6a74ed71461070957610210565b8063c475abff146105af578063c87b56dd146105df578063d6e4fa861461060f578063da8c229e1461063f57610210565b8063a7fc7a07116100f4578063a7fc7a071461050b578063b382e4c514610527578063b88d4fde14610545578063b9cce32814610561578063c1a287e21461059157610210565b80638da5cb5b1461048357806395d89b41146104a157806396e494e8146104bf578063a22cb465146104ef57610210565b806328ed4f6c116101a85780634f6ccce7116101775780634f6ccce7146103cd57806355f804b3146103fd5780636352211e1461041957806370a0823114610449578063715018a61461047957610210565b806328ed4f6c146103495780632f745c591461036557806342842e0e146103955780634e543b26146103b157610210565b8063095ea7b3116101e4578063095ea7b3146102c357806309b0eb4c146102df57806318160ddd1461030f57806323b872dd1461032d57610210565b8062ad800c1461021557806301ffc9a71461024557806306fdde0314610275578063081812fc14610293575b600080fd5b61022f600480360381019061022a91906134f5565b610725565b60405161023c91906135b2565b60405180910390f35b61025f600480360381019061025a919061362c565b6107ca565b60405161026c9190613674565b60405180910390f35b61027d610844565b60405161028a91906135b2565b60405180910390f35b6102ad60048036038101906102a891906134f5565b6108d6565b6040516102ba91906136d0565b60405180910390f35b6102dd60048036038101906102d89190613717565b61091c565b005b6102f960048036038101906102f491906137bc565b610a33565b604051610306919061383f565b60405180910390f35b610317610bbc565b604051610324919061383f565b60405180910390f35b6103476004803603810190610342919061385a565b610bc9565b005b610363600480360381019061035e91906138ad565b610c29565b005b61037f600480360381019061037a9190613717565b610df3565b60405161038c919061383f565b60405180910390f35b6103af60048036038101906103aa919061385a565b610e98565b005b6103cb60048036038101906103c691906138ed565b610eb8565b005b6103e760048036038101906103e291906134f5565b610f54565b6040516103f4919061383f565b60405180910390f35b61041760048036038101906104129190613a4a565b610fc5565b005b610433600480360381019061042e91906134f5565b610fe0565b60405161044091906136d0565b60405180910390f35b610463600480360381019061045e91906138ed565b611011565b604051610470919061383f565b60405180910390f35b6104816110c8565b005b61048b6110dc565b60405161049891906136d0565b60405180910390f35b6104a9611106565b6040516104b691906135b2565b60405180910390f35b6104d960048036038101906104d491906134f5565b611198565b6040516104e69190613674565b60405180910390f35b61050960048036038101906105049190613abf565b6111c5565b005b610525600480360381019061052091906138ed565b6111db565b005b61052f611281565b60405161053c9190613b5e565b60405180910390f35b61055f600480360381019061055a9190613c1a565b6112a7565b005b61057b600480360381019061057691906134f5565b611309565b604051610588919061383f565b60405180910390f35b610599611321565b6040516105a6919061383f565b60405180910390f35b6105c960048036038101906105c49190613c9d565b611328565b6040516105d6919061383f565b60405180910390f35b6105f960048036038101906105f491906134f5565b6115c6565b60405161060691906135b2565b60405180910390f35b610629600480360381019061062491906134f5565b61162e565b604051610636919061383f565b60405180910390f35b610659600480360381019061065491906138ed565b61164b565b6040516106669190613674565b60405180910390f35b61067761166b565b6040516106849190613cf6565b60405180910390f35b6106a760048036038101906106a29190613d11565b611671565b6040516106b4919061383f565b60405180910390f35b6106d760048036038101906106d29190613d99565b611801565b6040516106e49190613674565b60405180910390f35b610707600480360381019061070291906138ed565b611895565b005b610723600480360381019061071e91906138ed565b611918565b005b6060600f6000838152602001908152602001600020805461074590613e08565b80601f016020809104026020016040519081016040528092919081815260200182805461077190613e08565b80156107be5780601f10610793576101008083540402835291602001916107be565b820191906000526020600020905b8154815290600101906020018083116107a157829003601f168201915b50505050509050919050565b60007f4c9fd4a5000000000000000000000000000000000000000000000000000000007bffffffffffffffffffffffffffffffffffffffffffffffffffffffff1916827bffffffffffffffffffffffffffffffffffffffffffffffffffffffff1916148061083d575061083c826119be565b5b9050919050565b60606000805461085390613e08565b80601f016020809104026020016040519081016040528092919081815260200182805461087f90613e08565b80156108cc5780601f106108a1576101008083540402835291602001916108cc565b820191906000526020600020905b8154815290600101906020018083116108af57829003601f168201915b5050505050905090565b60006108e182611a38565b6004600083815260200190815260200160002060009054906101000a900473ffffffffffffffffffffffffffffffffffffffff169050919050565b600061092782611a83565b90508073ffffffffffffffffffffffffffffffffffffffff168373ffffffffffffffffffffffffffffffffffffffff1603610997576040517f08c379a000000000000000000000000000000000000000000000000000000000815260040161098e90613eab565b60405180910390fd5b8073ffffffffffffffffffffffffffffffffffffffff166109b6611b09565b73ffffffffffffffffffffffffffffffffffffffff1614806109e557506109e4816109df611b09565b611801565b5b610a24576040517f08c379a0000000000000000000000000000000000000000000000000000000008152600401610a1b90613f3d565b60405180910390fd5b610a2e8383611b11565b505050565b60003073ffffffffffffffffffffffffffffffffffffffff16600c60009054906101000a900473ffffffffffffffffffffffffffffffffffffffff1673ffffffffffffffffffffffffffffffffffffffff166302571be3600d546040518263ffffffff1660e01b8152600401610aa99190613cf6565b602060405180830381865afa158015610ac6573d6000803e3d6000fd5b505050506040513d601f19601f82011682018060405250810190610aea9190613f72565b73ffffffffffffffffffffffffffffffffffffffff1614610b0a57600080fd5b600e60003373ffffffffffffffffffffffffffffffffffffffff1673ffffffffffffffffffffffffffffffffffffffff16815260200190815260200160002060009054906101000a900460ff16610b6057600080fd5b610bb285858080601f016020809104026020016040519081016040528093929190818152602001838380828437600081840152601f19601f820116905080830192505050505050508484600080611bca565b9050949350505050565b6000600880549050905090565b610bda610bd4611b09565b82611eef565b610c19576040517f08c379a0000000000000000000000000000000000000000000000000000000008152600401610c1090614011565b60405180910390fd5b610c24838383611f84565b505050565b3073ffffffffffffffffffffffffffffffffffffffff16600c60009054906101000a900473ffffffffffffffffffffffffffffffffffffffff1673ffffffffffffffffffffffffffffffffffffffff166302571be3600d546040518263ffffffff1660e01b8152600401610c9d9190613cf6565b602060405180830381865afa158015610cba573d6000803e3d6000fd5b505050506040513d601f19601f82011682018060405250810190610cde9190613f72565b73ffffffffffffffffffffffffffffffffffffffff1614610cfe57600080fd5b610d083383611eef565b610d47576040517f08c379a0000000000000000000000000000000000000000000000000000000008152600401610d3e9061407d565b60405180910390fd5b600c60009054906101000a900473ffffffffffffffffffffffffffffffffffffffff1673ffffffffffffffffffffffffffffffffffffffff166306ab5923600d548460001b846040518463ffffffff1660e01b8152600401610dab9392919061409d565b6020604051808303816000875af1158015610dca573d6000803e3d6000fd5b505050506040513d601f19601f82011682018060405250810190610dee9190614100565b505050565b6000610dfe83611011565b8210610e3f576040517f08c379a0000000000000000000000000000000000000000000000000000000008152600401610e369061419f565b60405180910390fd5b600660008473ffffffffffffffffffffffffffffffffffffffff1673ffffffffffffffffffffffffffffffffffffffff168152602001908152602001600020600083815260200190815260200160002054905092915050565b610eb3838383604051806020016040528060008152506112a7565b505050565b610ec061227d565b600c60009054906101000a900473ffffffffffffffffffffffffffffffffffffffff1673ffffffffffffffffffffffffffffffffffffffff16631896f70a600d54836040518363ffffffff1660e01b8152600401610f1f9291906141bf565b600060405180830381600087803b158015610f3957600080fd5b505af1158015610f4d573d6000803e3d6000fd5b5050505050565b6000610f5e610bbc565b8210610f9f576040517f08c379a0000000000000000000000000000000000000000000000000000000008152600401610f969061425a565b60405180910390fd5b60088281548110610fb357610fb261427a565b5b90600052602060002001549050919050565b610fcd61227d565b8060109081610fdc919061444b565b5050565b600042600b6000848152602001908152602001600020541161100157600080fd5b61100a82611a83565b9050919050565b60008073ffffffffffffffffffffffffffffffffffffffff168273ffffffffffffffffffffffffffffffffffffffff1603611081576040517f08c379a00000000000000000000000000000000000000000000000000000000081526004016110789061458f565b60405180910390fd5b600360008373ffffffffffffffffffffffffffffffffffffffff1673ffffffffffffffffffffffffffffffffffffffff168152602001908152602001600020549050919050565b6110d061227d565b6110da60006122fb565b565b6000600a60009054906101000a900473ffffffffffffffffffffffffffffffffffffffff16905090565b60606001805461111590613e08565b80601f016020809104026020016040519081016040528092919081815260200182805461114190613e08565b801561118e5780601f106111635761010080835404028352916020019161118e565b820191906000526020600020905b81548152906001019060200180831161117157829003601f168201915b5050505050905090565b6000426276a700600b6000858152602001908152602001600020546111bd91906145de565b109050919050565b6111d76111d0611b09565b83836123c1565b5050565b6111e361227d565b6001600e60008373ffffffffffffffffffffffffffffffffffffffff1673ffffffffffffffffffffffffffffffffffffffff16815260200190815260200160002060006101000a81548160ff0219169083151502179055508073ffffffffffffffffffffffffffffffffffffffff167f0a8bb31534c0ed46f380cb867bd5c803a189ced9a764e30b3a4991a9901d747460405160405180910390a250565b600c60009054906101000a900473ffffffffffffffffffffffffffffffffffffffff1681565b6112b86112b2611b09565b83611eef565b6112f7576040517f08c379a00000000000000000000000000000000000000000000000000000000081526004016112ee90614011565b60405180910390fd5b6113038484848461252d565b50505050565b600b6020528060005260406000206000915090505481565b6276a70081565b60003073ffffffffffffffffffffffffffffffffffffffff16600c60009054906101000a900473ffffffffffffffffffffffffffffffffffffffff1673ffffffffffffffffffffffffffffffffffffffff166302571be3600d546040518263ffffffff1660e01b815260040161139e9190613cf6565b602060405180830381865afa1580156113bb573d6000803e3d6000fd5b505050506040513d601f19601f820116820180604052508101906113df9190613f72565b73ffffffffffffffffffffffffffffffffffffffff16146113ff57600080fd5b600e60003373ffffffffffffffffffffffffffffffffffffffff1673ffffffffffffffffffffffffffffffffffffffff16815260200190815260200160002060009054906101000a900460ff1661145557600080fd5b426276a700600b60008681526020019081526020016000205461147891906145de565b10156114b9576040517f08c379a00000000000000000000000000000000000000000000000000000000081526004016114b09061465e565b60405180910390fd5b6276a700826114c891906145de565b6276a70083600b6000878152602001908152602001600020546114eb91906145de565b6114f591906145de565b11611535576040517f08c379a000000000000000000000000000000000000000000000000000000000815260040161152c906146ca565b60405180910390fd5b81600b6000858152602001908152602001600020600082825461155891906145de565b92505081905550827f9b87a00e30f1ac65d898f070f8a3488fe60517182d0a2098e1b4b93a54aa9bd6600b6000868152602001908152602001600020546040516115a2919061383f565b60405180910390a2600b600084815260200190815260200160002054905092915050565b60606115d182611a38565b60006115db612589565b905060008151116115fb5760405180602001604052806000815250611626565b806116058461261b565b604051602001611616929190614726565b6040516020818303038152906040525b915050919050565b6000600b6000838152602001908152602001600020549050919050565b600e6020528060005260406000206000915054906101000a900460ff1681565b600d5481565b60003073ffffffffffffffffffffffffffffffffffffffff16600c60009054906101000a900473ffffffffffffffffffffffffffffffffffffffff1673ffffffffffffffffffffffffffffffffffffffff166302571be3600d546040518263ffffffff1660e01b81526004016116e79190613cf6565b602060405180830381865afa158015611704573d6000803e3d6000fd5b505050506040513d601f19601f820116820180604052508101906117289190613f72565b73ffffffffffffffffffffffffffffffffffffffff161461174857600080fd5b600e60003373ffffffffffffffffffffffffffffffffffffffff1673ffffffffffffffffffffffffffffffffffffffff16815260200190815260200160002060009054906101000a900460ff1661179e57600080fd5b60006117f287878080601f016020809104026020016040519081016040528093929190818152602001838380828437600081840152601f19601f820116905080830192505050505050508686600187611bca565b90508091505095945050505050565b6000600560008473ffffffffffffffffffffffffffffffffffffffff1673ffffffffffffffffffffffffffffffffffffffff16815260200190815260200160002060008373ffffffffffffffffffffffffffffffffffffffff1673ffffffffffffffffffffffffffffffffffffffff16815260200190815260200160002060009054906101000a900460ff16905092915050565b61189d61227d565b600073ffffffffffffffffffffffffffffffffffffffff168173ffffffffffffffffffffffffffffffffffffffff160361190c576040517f08c379a0000000000000000000000000000000000000000000000000000000008152600401611903906147bc565b60405180910390fd5b611915816122fb565b50565b61192061227d565b6000600e60008373ffffffffffffffffffffffffffffffffffffffff1673ffffffffffffffffffffffffffffffffffffffff16815260200190815260200160002060006101000a81548160ff0219169083151502179055508073ffffffffffffffffffffffffffffffffffffffff167f33d83959be2573f5453b12eb9d43b3499bc57d96bd2f067ba44803c859e8111360405160405180910390a250565b60007f780e9d63000000000000000000000000000000000000000000000000000000007bffffffffffffffffffffffffffffffffffffffffffffffffffffffff1916827bffffffffffffffffffffffffffffffffffffffffffffffffffffffff19161480611a315750611a30826126e9565b5b9050919050565b611a41816127cb565b611a80576040517f08c379a0000000000000000000000000000000000000000000000000000000008152600401611a7790614828565b60405180910390fd5b50565b600080611a8f8361280c565b9050600073ffffffffffffffffffffffffffffffffffffffff168173ffffffffffffffffffffffffffffffffffffffff1603611b00576040517f08c379a0000000000000000000000000000000000000000000000000000000008152600401611af790614828565b60405180910390fd5b80915050919050565b600033905090565b816004600083815260200190815260200160002060006101000a81548173ffffffffffffffffffffffffffffffffffffffff021916908373ffffffffffffffffffffffffffffffffffffffff160217905550808273ffffffffffffffffffffffffffffffffffffffff16611b8483611a83565b73ffffffffffffffffffffffffffffffffffffffff167f8c5be1e5ebec7d5bd14f71427d1e84f3dd0314c0f7b2291e5b200ac8c7c3b92560405160405180910390a45050565b600080868051906020012060001c9050611be381611198565b611c22576040517f08c379a0000000000000000000000000000000000000000000000000000000008152600401611c1990614894565b60405180910390fd5b6276a70042611c3191906145de565b6276a7008642611c4191906145de565b611c4b91906145de565b11611c8b576040517f08c379a0000000000000000000000000000000000000000000000000000000008152600401611c829061465e565b60405180910390fd5b8442611c9791906145de565b600b600083815260200190815260200160002081905550611cb7816127cb565b15611cc657611cc581612849565b5b86600f60008381526020019081526020016000209081611ce6919061444b565b50611cf18682612997565b8315611e7d57600c60009054906101000a900473ffffffffffffffffffffffffffffffffffffffff1673ffffffffffffffffffffffffffffffffffffffff166306ab5923600d548360001b896040518463ffffffff1660e01b8152600401611d5b9392919061409d565b6020604051808303816000875af1158015611d7a573d6000803e3d6000fd5b505050506040513d601f19601f82011682018060405250810190611d9e9190614100565b50600073ffffffffffffffffffffffffffffffffffffffff168373ffffffffffffffffffffffffffffffffffffffff1614611e7c57600c60009054906101000a900473ffffffffffffffffffffffffffffffffffffffff1673ffffffffffffffffffffffffffffffffffffffff16630cba6ee5600d548360001b866040518463ffffffff1660e01b8152600401611e379392919061409d565b6020604051808303816000875af1158015611e56573d6000803e3d6000fd5b505050506040513d601f19601f82011682018060405250810190611e7a9190614100565b505b5b8573ffffffffffffffffffffffffffffffffffffffff16817fb3d987963d01b2f68493b4bdb130988f157ea43070d4ad840fee0466ed9370d98742611ec291906145de565b604051611ecf919061383f565b60405180910390a38442611ee391906145de565b91505095945050505050565b600080611efb83610fe0565b90508073ffffffffffffffffffffffffffffffffffffffff168473ffffffffffffffffffffffffffffffffffffffff161480611f6a57508373ffffffffffffffffffffffffffffffffffffffff16611f52846108d6565b73ffffffffffffffffffffffffffffffffffffffff16145b80611f7b5750611f7a8185611801565b5b91505092915050565b8273ffffffffffffffffffffffffffffffffffffffff16611fa482611a83565b73ffffffffffffffffffffffffffffffffffffffff1614611ffa576040517f08c379a0000000000000000000000000000000000000000000000000000000008152600401611ff190614926565b60405180910390fd5b600073ffffffffffffffffffffffffffffffffffffffff168273ffffffffffffffffffffffffffffffffffffffff1603612069576040517f08c379a0000000000000000000000000000000000000000000000000000000008152600401612060906149b8565b60405180910390fd5b6120768383836001612bb4565b8273ffffffffffffffffffffffffffffffffffffffff1661209682611a83565b73ffffffffffffffffffffffffffffffffffffffff16146120ec576040517f08c379a00000000000000000000000000000000000000000000000000000000081526004016120e390614926565b60405180910390fd5b6004600082815260200190815260200160002060006101000a81549073ffffffffffffffffffffffffffffffffffffffff02191690556001600360008573ffffffffffffffffffffffffffffffffffffffff1673ffffffffffffffffffffffffffffffffffffffff168152602001908152602001600020600082825403925050819055506001600360008473ffffffffffffffffffffffffffffffffffffffff1673ffffffffffffffffffffffffffffffffffffffff16815260200190815260200160002060008282540192505081905550816002600083815260200190815260200160002060006101000a81548173ffffffffffffffffffffffffffffffffffffffff021916908373ffffffffffffffffffffffffffffffffffffffff160217905550808273ffffffffffffffffffffffffffffffffffffffff168473ffffffffffffffffffffffffffffffffffffffff167fddf252ad1be2c89b69c2b068fc378daa952ba7f163c4a11628f55a4df523b3ef60405160405180910390a46122788383836001612d12565b505050565b612285611b09565b73ffffffffffffffffffffffffffffffffffffffff166122a36110dc565b73ffffffffffffffffffffffffffffffffffffffff16146122f9576040517f08c379a00000000000000000000000000000000000000000000000000000000081526004016122f090614a24565b60405180910390fd5b565b6000600a60009054906101000a900473ffffffffffffffffffffffffffffffffffffffff16905081600a60006101000a81548173ffffffffffffffffffffffffffffffffffffffff021916908373ffffffffffffffffffffffffffffffffffffffff1602179055508173ffffffffffffffffffffffffffffffffffffffff168173ffffffffffffffffffffffffffffffffffffffff167f8be0079c531659141344cd1fd0a4f28419497f9722a3daafe3b4186f6b6457e060405160405180910390a35050565b8173ffffffffffffffffffffffffffffffffffffffff168373ffffffffffffffffffffffffffffffffffffffff160361242f576040517f08c379a000000000000000000000000000000000000000000000000000000000815260040161242690614a90565b60405180910390fd5b80600560008573ffffffffffffffffffffffffffffffffffffffff1673ffffffffffffffffffffffffffffffffffffffff16815260200190815260200160002060008473ffffffffffffffffffffffffffffffffffffffff1673ffffffffffffffffffffffffffffffffffffffff16815260200190815260200160002060006101000a81548160ff0219169083151502179055508173ffffffffffffffffffffffffffffffffffffffff168373ffffffffffffffffffffffffffffffffffffffff167f17307eab39ab6107e8899845ad3d59bd9653f200f220920489ca2b5937696c31836040516125209190613674565b60405180910390a3505050565b612538848484611f84565b61254484848484612d18565b612583576040517f08c379a000000000000000000000000000000000000000000000000000000000815260040161257a90614b22565b60405180910390fd5b50505050565b60606010805461259890613e08565b80601f01602080910402602001604051908101604052809291908181526020018280546125c490613e08565b80156126115780601f106125e657610100808354040283529160200191612611565b820191906000526020600020905b8154815290600101906020018083116125f457829003601f168201915b5050505050905090565b60606000600161262a84612e9f565b01905060008167ffffffffffffffff8111156126495761264861391f565b5b6040519080825280601f01601f19166020018201604052801561267b5781602001600182028036833780820191505090505b509050600082602001820190505b6001156126de578080600190039150507f3031323334353637383961626364656600000000000000000000000000000000600a86061a8153600a85816126d2576126d1614b42565b5b04945060008503612689575b819350505050919050565b60007f80ac58cd000000000000000000000000000000000000000000000000000000007bffffffffffffffffffffffffffffffffffffffffffffffffffffffff1916827bffffffffffffffffffffffffffffffffffffffffffffffffffffffff191614806127b457507f5b5e139f000000000000000000000000000000000000000000000000000000007bffffffffffffffffffffffffffffffffffffffffffffffffffffffff1916827bffffffffffffffffffffffffffffffffffffffffffffffffffffffff1916145b806127c457506127c382612ff2565b5b9050919050565b60008073ffffffffffffffffffffffffffffffffffffffff166127ed8361280c565b73ffffffffffffffffffffffffffffffffffffffff1614159050919050565b60006002600083815260200190815260200160002060009054906101000a900473ffffffffffffffffffffffffffffffffffffffff169050919050565b600061285482611a83565b9050612864816000846001612bb4565b61286d82611a83565b90506004600083815260200190815260200160002060006101000a81549073ffffffffffffffffffffffffffffffffffffffff02191690556001600360008373ffffffffffffffffffffffffffffffffffffffff1673ffffffffffffffffffffffffffffffffffffffff168152602001908152602001600020600082825403925050819055506002600083815260200190815260200160002060006101000a81549073ffffffffffffffffffffffffffffffffffffffff021916905581600073ffffffffffffffffffffffffffffffffffffffff168273ffffffffffffffffffffffffffffffffffffffff167fddf252ad1be2c89b69c2b068fc378daa952ba7f163c4a11628f55a4df523b3ef60405160405180910390a4612993816000846001612d12565b5050565b600073ffffffffffffffffffffffffffffffffffffffff168273ffffffffffffffffffffffffffffffffffffffff1603612a06576040517f08c379a00000000000000000000000000000000000000000000000000000000081526004016129fd90614bbd565b60405180910390fd5b612a0f816127cb565b15612a4f576040517f08c379a0000000000000000000000000000000000000000000000000000000008152600401612a4690614c29565b60405180910390fd5b612a5d600083836001612bb4565b612a66816127cb565b15612aa6576040517f08c379a0000000000000000000000000000000000000000000000000000000008152600401612a9d90614c29565b60405180910390fd5b6001600360008473ffffffffffffffffffffffffffffffffffffffff1673ffffffffffffffffffffffffffffffffffffffff16815260200190815260200160002060008282540192505081905550816002600083815260200190815260200160002060006101000a81548173ffffffffffffffffffffffffffffffffffffffff021916908373ffffffffffffffffffffffffffffffffffffffff160217905550808273ffffffffffffffffffffffffffffffffffffffff16600073ffffffffffffffffffffffffffffffffffffffff167fddf252ad1be2c89b69c2b068fc378daa952ba7f163c4a11628f55a4df523b3ef60405160405180910390a4612bb0600083836001612d12565b5050565b612bc08484848461305c565b6001811115612c04576040517f08c379a0000000000000000000000000000000000000000000000000000000008152600401612bfb90614cbb565b60405180910390fd5b6000829050600073ffffffffffffffffffffffffffffffffffffffff168573ffffffffffffffffffffffffffffffffffffffff1603612c4b57612c4681613182565b612c8a565b8373ffffffffffffffffffffffffffffffffffffffff168573ffffffffffffffffffffffffffffffffffffffff1614612c8957612c8885826131cb565b5b5b600073ffffffffffffffffffffffffffffffffffffffff168473ffffffffffffffffffffffffffffffffffffffff1603612ccc57612cc781613338565b612d0b565b8473ffffffffffffffffffffffffffffffffffffffff168473ffffffffffffffffffffffffffffffffffffffff1614612d0a57612d098482613409565b5b5b5050505050565b50505050565b6000612d398473ffffffffffffffffffffffffffffffffffffffff16613488565b15612e92578373ffffffffffffffffffffffffffffffffffffffff1663150b7a02612d62611b09565b8786866040518563ffffffff1660e01b8152600401612d849493929190614d30565b6020604051808303816000875af1925050508015612dc057506040513d601f19601f82011682018060405250810190612dbd9190614d91565b60015b612e42573d8060008114612df0576040519150601f19603f3d011682016040523d82523d6000602084013e612df5565b606091505b506000815103612e3a576040517f08c379a0000000000000000000000000000000000000000000000000000000008152600401612e3190614b22565b60405180910390fd5b805181602001fd5b63150b7a0260e01b7bffffffffffffffffffffffffffffffffffffffffffffffffffffffff1916817bffffffffffffffffffffffffffffffffffffffffffffffffffffffff191614915050612e97565b600190505b949350505050565b600080600090507a184f03e93ff9f4daa797ed6e38ed64bf6a1f0100000000000000008310612efd577a184f03e93ff9f4daa797ed6e38ed64bf6a1f0100000000000000008381612ef357612ef2614b42565b5b0492506040810190505b6d04ee2d6d415b85acef81000000008310612f3a576d04ee2d6d415b85acef81000000008381612f3057612f2f614b42565b5b0492506020810190505b662386f26fc100008310612f6957662386f26fc100008381612f5f57612f5e614b42565b5b0492506010810190505b6305f5e1008310612f92576305f5e1008381612f8857612f87614b42565b5b0492506008810190505b6127108310612fb7576127108381612fad57612fac614b42565b5b0492506004810190505b60648310612fda5760648381612fd057612fcf614b42565b5b0492506002810190505b600a8310612fe9576001810190505b80915050919050565b60007f01ffc9a7000000000000000000000000000000000000000000000000000000007bffffffffffffffffffffffffffffffffffffffffffffffffffffffff1916827bffffffffffffffffffffffffffffffffffffffffffffffffffffffff1916149050919050565b600181111561317c57600073ffffffffffffffffffffffffffffffffffffffff168473ffffffffffffffffffffffffffffffffffffffff16146130f05780600360008673ffffffffffffffffffffffffffffffffffffffff1673ffffffffffffffffffffffffffffffffffffffff16815260200190815260200160002060008282546130e89190614dbe565b925050819055505b600073ffffffffffffffffffffffffffffffffffffffff168373ffffffffffffffffffffffffffffffffffffffff161461317b5780600360008573ffffffffffffffffffffffffffffffffffffffff1673ffffffffffffffffffffffffffffffffffffffff168152602001908152602001600020600082825461317391906145de565b925050819055505b5b50505050565b6008805490506009600083815260200190815260200160002081905550600881908060018154018082558091505060019003906000526020600020016000909190919091505550565b600060016131d884611011565b6131e29190614dbe565b90506000600760008481526020019081526020016000205490508181146132c7576000600660008673ffffffffffffffffffffffffffffffffffffffff1673ffffffffffffffffffffffffffffffffffffffff168152602001908152602001600020600084815260200190815260200160002054905080600660008773ffffffffffffffffffffffffffffffffffffffff1673ffffffffffffffffffffffffffffffffffffffff168152602001908152602001600020600084815260200190815260200160002081905550816007600083815260200190815260200160002081905550505b6007600084815260200190815260200160002060009055600660008573ffffffffffffffffffffffffffffffffffffffff1673ffffffffffffffffffffffffffffffffffffffff16815260200190815260200160002060008381526020019081526020016000206000905550505050565b6000600160088054905061334c9190614dbe565b905060006009600084815260200190815260200160002054905060006008838154811061337c5761337b61427a565b5b90600052602060002001549050806008838154811061339e5761339d61427a565b5b9060005260206000200181905550816009600083815260200190815260200160002081905550600960008581526020019081526020016000206000905560088054806133ed576133ec614df2565b5b6001900381819060005260206000200160009055905550505050565b600061341483611011565b905081600660008573ffffffffffffffffffffffffffffffffffffffff1673ffffffffffffffffffffffffffffffffffffffff168152602001908152602001600020600083815260200190815260200160002081905550806007600084815260200190815260200160002081905550505050565b6000808273ffffffffffffffffffffffffffffffffffffffff163b119050919050565b6000604051905090565b600080fd5b600080fd5b6000819050919050565b6134d2816134bf565b81146134dd57600080fd5b50565b6000813590506134ef816134c9565b92915050565b60006020828403121561350b5761350a6134b5565b5b6000613519848285016134e0565b91505092915050565b600081519050919050565b600082825260208201905092915050565b60005b8381101561355c578082015181840152602081019050613541565b60008484015250505050565b6000601f19601f8301169050919050565b600061358482613522565b61358e818561352d565b935061359e81856020860161353e565b6135a781613568565b840191505092915050565b600060208201905081810360008301526135cc8184613579565b905092915050565b60007fffffffff0000000000000000000000000000000000000000000000000000000082169050919050565b613609816135d4565b811461361457600080fd5b50565b60008135905061362681613600565b92915050565b600060208284031215613642576136416134b5565b5b600061365084828501613617565b91505092915050565b60008115159050919050565b61366e81613659565b82525050565b60006020820190506136896000830184613665565b92915050565b600073ffffffffffffffffffffffffffffffffffffffff82169050919050565b60006136ba8261368f565b9050919050565b6136ca816136af565b82525050565b60006020820190506136e560008301846136c1565b92915050565b6136f4816136af565b81146136ff57600080fd5b50565b600081359050613711816136eb565b92915050565b6000806040838503121561372e5761372d6134b5565b5b600061373c85828601613702565b925050602061374d858286016134e0565b9150509250929050565b600080fd5b600080fd5b600080fd5b60008083601f84011261377c5761377b613757565b5b8235905067ffffffffffffffff8111156137995761379861375c565b5b6020830191508360018202830111156137b5576137b4613761565b5b9250929050565b600080600080606085870312156137d6576137d56134b5565b5b600085013567ffffffffffffffff8111156137f4576137f36134ba565b5b61380087828801613766565b9450945050602061381387828801613702565b9250506040613824878288016134e0565b91505092959194509250565b613839816134bf565b82525050565b60006020820190506138546000830184613830565b92915050565b600080600060608486031215613873576138726134b5565b5b600061388186828701613702565b935050602061389286828701613702565b92505060406138a3868287016134e0565b9150509250925092565b600080604083850312156138c4576138c36134b5565b5b60006138d2858286016134e0565b92505060206138e385828601613702565b9150509250929050565b600060208284031215613903576139026134b5565b5b600061391184828501613702565b91505092915050565b600080fd5b7f4e487b7100000000000000000000000000000000000000000000000000000000600052604160045260246000fd5b61395782613568565b810181811067ffffffffffffffff821117156139765761397561391f565b5b80604052505050565b60006139896134ab565b9050613995828261394e565b919050565b600067ffffffffffffffff8211156139b5576139b461391f565b5b6139be82613568565b9050602081019050919050565b82818337600083830152505050565b60006139ed6139e88461399a565b61397f565b905082815260208101848484011115613a0957613a0861391a565b5b613a148482856139cb565b509392505050565b600082601f830112613a3157613a30613757565b5b8135613a418482602086016139da565b91505092915050565b600060208284031215613a6057613a5f6134b5565b5b600082013567ffffffffffffffff811115613a7e57613a7d6134ba565b5b613a8a84828501613a1c565b91505092915050565b613a9c81613659565b8114613aa757600080fd5b50565b600081359050613ab981613a93565b92915050565b60008060408385031215613ad657613ad56134b5565b5b6000613ae485828601613702565b9250506020613af585828601613aaa565b9150509250929050565b6000819050919050565b6000613b24613b1f613b1a8461368f565b613aff565b61368f565b9050919050565b6000613b3682613b09565b9050919050565b6000613b4882613b2b565b9050919050565b613b5881613b3d565b82525050565b6000602082019050613b736000830184613b4f565b92915050565b600067ffffffffffffffff821115613b9457613b9361391f565b5b613b9d82613568565b9050602081019050919050565b6000613bbd613bb884613b79565b61397f565b905082815260208101848484011115613bd957613bd861391a565b5b613be48482856139cb565b509392505050565b600082601f830112613c0157613c00613757565b5b8135613c11848260208601613baa565b91505092915050565b60008060008060808587031215613c3457613c336134b5565b5b6000613c4287828801613702565b9450506020613c5387828801613702565b9350506040613c64878288016134e0565b925050606085013567ffffffffffffffff811115613c8557613c846134ba565b5b613c9187828801613bec565b91505092959194509250565b60008060408385031215613cb457613cb36134b5565b5b6000613cc2858286016134e0565b9250506020613cd3858286016134e0565b9150509250929050565b6000819050919050565b613cf081613cdd565b82525050565b6000602082019050613d0b6000830184613ce7565b92915050565b600080600080600060808688031215613d2d57613d2c6134b5565b5b600086013567ffffffffffffffff811115613d4b57613d4a6134ba565b5b613d5788828901613766565b95509550506020613d6a88828901613702565b9350506040613d7b888289016134e0565b9250506060613d8c88828901613702565b9150509295509295909350565b60008060408385031215613db057613daf6134b5565b5b6000613dbe85828601613702565b9250506020613dcf85828601613702565b9150509250929050565b7f4e487b7100000000000000000000000000000000000000000000000000000000600052602260045260246000fd5b60006002820490506001821680613e2057607f821691505b602082108103613e3357613e32613dd9565b5b50919050565b7f4552433732313a20617070726f76616c20746f2063757272656e74206f776e6560008201527f7200000000000000000000000000000000000000000000000000000000000000602082015250565b6000613e9560218361352d565b9150613ea082613e39565b604082019050919050565b60006020820190508181036000830152613ec481613e88565b9050919050565b7f4552433732313a20617070726f76652063616c6c6572206973206e6f7420746f60008201527f6b656e206f776e6572206f7220617070726f76656420666f7220616c6c000000602082015250565b6000613f27603d8361352d565b9150613f3282613ecb565b604082019050919050565b60006020820190508181036000830152613f5681613f1a565b9050919050565b600081519050613f6c816136eb565b92915050565b600060208284031215613f8857613f876134b5565b5b6000613f9684828501613f5d565b91505092915050565b7f4552433732313a2063616c6c6572206973206e6f7420746f6b656e206f776e6560008201527f72206f7220617070726f76656400000000000000000000000000000000000000602082015250565b6000613ffb602d8361352d565b915061400682613f9f565b604082019050919050565b6000602082019050818103600083015261402a81613fee565b9050919050565b7f666f7262696464656e0000000000000000000000000000000000000000000000600082015250565b600061406760098361352d565b915061407282614031565b602082019050919050565b600060208201905081810360008301526140968161405a565b9050919050565b60006060820190506140b26000830186613ce7565b6140bf6020830185613ce7565b6140cc60408301846136c1565b949350505050565b6140dd81613cdd565b81146140e857600080fd5b50565b6000815190506140fa816140d4565b92915050565b600060208284031215614116576141156134b5565b5b6000614124848285016140eb565b91505092915050565b7f455243373231456e756d657261626c653a206f776e657220696e646578206f7560008201527f74206f6620626f756e6473000000000000000000000000000000000000000000602082015250565b6000614189602b8361352d565b91506141948261412d565b604082019050919050565b600060208201905081810360008301526141b88161417c565b9050919050565b60006040820190506141d46000830185613ce7565b6141e160208301846136c1565b9392505050565b7f455243373231456e756d657261626c653a20676c6f62616c20696e646578206f60008201527f7574206f6620626f756e64730000000000000000000000000000000000000000602082015250565b6000614244602c8361352d565b915061424f826141e8565b604082019050919050565b6000602082019050818103600083015261427381614237565b9050919050565b7f4e487b7100000000000000000000000000000000000000000000000000000000600052603260045260246000fd5b60008190508160005260206000209050919050565b60006020601f8301049050919050565b600082821b905092915050565b60006008830261430b7fffffffffffffffffffffffffffffffffffffffffffffffffffffffffffffffff826142ce565b61431586836142ce565b95508019841693508086168417925050509392505050565b600061434861434361433e846134bf565b613aff565b6134bf565b9050919050565b6000819050919050565b6143628361432d565b61437661436e8261434f565b8484546142db565b825550505050565b600090565b61438b61437e565b614396818484614359565b505050565b5b818110156143ba576143af600082614383565b60018101905061439c565b5050565b601f8211156143ff576143d0816142a9565b6143d9846142be565b810160208510156143e8578190505b6143fc6143f4856142be565b83018261439b565b50505b505050565b600082821c905092915050565b600061442260001984600802614404565b1980831691505092915050565b600061443b8383614411565b9150826002028217905092915050565b61445482613522565b67ffffffffffffffff81111561446d5761446c61391f565b5b6144778254613e08565b6144828282856143be565b600060209050601f8311600181146144b557600084156144a3578287015190505b6144ad858261442f565b865550614515565b601f1984166144c3866142a9565b60005b828110156144eb578489015182556001820191506020850194506020810190506144c6565b868310156145085784890151614504601f891682614411565b8355505b6001600288020188555050505b505050505050565b7f4552433732313a2061646472657373207a65726f206973206e6f74206120766160008201527f6c6964206f776e65720000000000000000000000000000000000000000000000602082015250565b600061457960298361352d565b91506145848261451d565b604082019050919050565b600060208201905081810360008301526145a88161456c565b9050919050565b7f4e487b7100000000000000000000000000000000000000000000000000000000600052601160045260246000fd5b60006145e9826134bf565b91506145f4836134bf565b925082820190508082111561460c5761460b6145af565b5b92915050565b7f677261636520706572696f640000000000000000000000000000000000000000600082015250565b6000614648600c8361352d565b915061465382614612565b602082019050919050565b600060208201905081810360008301526146778161463b565b9050919050565b7f667574757265206f766572666c6f770000000000000000000000000000000000600082015250565b60006146b4600f8361352d565b91506146bf8261467e565b602082019050919050565b600060208201905081810360008301526146e3816146a7565b9050919050565b600081905092915050565b600061470082613522565b61470a81856146ea565b935061471a81856020860161353e565b80840191505092915050565b600061473282856146f5565b915061473e82846146f5565b91508190509392505050565b7f4f776e61626c653a206e6577206f776e657220697320746865207a65726f206160008201527f6464726573730000000000000000000000000000000000000000000000000000602082015250565b60006147a660268361352d565b91506147b18261474a565b604082019050919050565b600060208201905081810360008301526147d581614799565b9050919050565b7f4552433732313a20696e76616c696420746f6b656e2049440000000000000000600082015250565b600061481260188361352d565b915061481d826147dc565b602082019050919050565b6000602082019050818103600083015261484181614805565b9050919050565b7f6e6f7420617661696c61626c6500000000000000000000000000000000000000600082015250565b600061487e600d8361352d565b915061488982614848565b602082019050919050565b600060208201905081810360008301526148ad81614871565b9050919050565b7f4552433732313a207472616e736665722066726f6d20696e636f72726563742060008201527f6f776e6572000000000000000000000000000000000000000000000000000000602082015250565b600061491060258361352d565b915061491b826148b4565b604082019050919050565b6000602082019050818103600083015261493f81614903565b9050919050565b7f4552433732313a207472616e7366657220746f20746865207a65726f2061646460008201527f7265737300000000000000000000000000000000000000000000000000000000602082015250565b60006149a260248361352d565b91506149ad82614946565b604082019050919050565b600060208201905081810360008301526149d181614995565b9050919050565b7f4f776e61626c653a2063616c6c6572206973206e6f7420746865206f776e6572600082015250565b6000614a0e60208361352d565b9150614a19826149d8565b602082019050919050565b60006020820190508181036000830152614a3d81614a01565b9050919050565b7f4552433732313a20617070726f766520746f2063616c6c657200000000000000600082015250565b6000614a7a60198361352d565b9150614a8582614a44565b602082019050919050565b60006020820190508181036000830152614aa981614a6d565b9050919050565b7f4552433732313a207472616e7366657220746f206e6f6e20455243373231526560008201527f63656976657220696d706c656d656e7465720000000000000000000000000000602082015250565b6000614b0c60328361352d565b9150614b1782614ab0565b604082019050919050565b60006020820190508181036000830152614b3b81614aff565b9050919050565b7f4e487b7100000000000000000000000000000000000000000000000000000000600052601260045260246000fd5b7f4552433732313a206d696e7420746f20746865207a65726f2061646472657373600082015250565b6000614ba760208361352d565b9150614bb282614b71565b602082019050919050565b60006020820190508181036000830152614bd681614b9a565b9050919050565b7f4552433732313a20746f6b656e20616c7265616479206d696e74656400000000600082015250565b6000614c13601c8361352d565b9150614c1e82614bdd565b602082019050919050565b60006020820190508181036000830152614c4281614c06565b9050919050565b7f455243373231456e756d657261626c653a20636f6e736563757469766520747260008201527f616e7366657273206e6f7420737570706f727465640000000000000000000000602082015250565b6000614ca560358361352d565b9150614cb082614c49565b604082019050919050565b60006020820190508181036000830152614cd481614c98565b9050919050565b600081519050919050565b600082825260208201905092915050565b6000614d0282614cdb565b614d0c8185614ce6565b9350614d1c81856020860161353e565b614d2581613568565b840191505092915050565b6000608082019050614d4560008301876136c1565b614d5260208301866136c1565b614d5f6040830185613830565b8181036060830152614d718184614cf7565b905095945050505050565b600081519050614d8b81613600565b92915050565b600060208284031215614da757614da66134b5565b5b6000614db584828501614d7c565b91505092915050565b6000614dc9826134bf565b9150614dd4836134bf565b9250828203905081811115614dec57614deb6145af565b5b92915050565b7f4e487b7100000000000000000000000000000000000000000000000000000000600052603160045260246000fdfea2646970667358221220f9481d3374e1686324e62cc942345d772332be257c39e8315ae38246d17b42b264736f6c63430008110033",
  "devdoc": {
    "kind": "dev",
    "methods": {
      "approve(address,uint256)": {
        "details": "See {IERC721-approve}."
      },
      "balanceOf(address)": {
        "details": "See {IERC721-balanceOf}."
      },
      "getApproved(uint256)": {
        "details": "See {IERC721-getApproved}."
      },
      "isApprovedForAll(address,address)": {
        "details": "See {IERC721-isApprovedForAll}."
      },
      "name()": {
        "details": "See {IERC721Metadata-name}."
      },
      "owner()": {
        "details": "Returns the address of the current owner."
      },
      "ownerOf(uint256)": {
        "details": "Gets the owner of the specified token ID. Names become unowned      when their registration expires.",
        "params": {
          "tokenId": "uint256 ID of the token to query the owner of"
        },
        "returns": {
          "_0": "address currently marked as the owner of the given token ID"
        }
      },
      "reclaim(uint256,address)": {
        "details": "Reclaim ownership of a name in FNS, if you own it in the registrar."
      },
      "register(string,address,uint256,address)": {
        "details": "Register a name.",
        "params": {
          "_name": "The name to registry",
          "_owner": "The address that should own the registration.",
          "duration": "Duration in seconds for the registration."
        }
      },
      "registerOnly(string,address,uint256)": {
        "details": "Register a name, without modifying the registry.",
        "params": {
          "_name": "The name to registry",
          "_owner": "The address that should own the registration.",
          "duration": "Duration in seconds for the registration."
        }
      },
      "renounceOwnership()": {
        "details": "Leaves the contract without owner. It will not be possible to call `onlyOwner` functions anymore. Can only be called by the current owner. NOTE: Renouncing ownership will leave the contract without an owner, thereby removing any functionality that is only available to the owner."
      },
      "safeTransferFrom(address,address,uint256)": {
        "details": "See {IERC721-safeTransferFrom}."
      },
      "safeTransferFrom(address,address,uint256,bytes)": {
        "details": "See {IERC721-safeTransferFrom}."
      },
      "setApprovalForAll(address,bool)": {
        "details": "See {IERC721-setApprovalForAll}."
      },
      "symbol()": {
        "details": "See {IERC721Metadata-symbol}."
      },
      "tokenByIndex(uint256)": {
        "details": "See {IERC721Enumerable-tokenByIndex}."
      },
      "tokenOfOwnerByIndex(address,uint256)": {
        "details": "See {IERC721Enumerable-tokenOfOwnerByIndex}."
      },
      "tokenURI(uint256)": {
        "details": "See {IERC721Metadata-tokenURI}."
      },
      "totalSupply()": {
        "details": "See {IERC721Enumerable-totalSupply}."
      },
      "transferFrom(address,address,uint256)": {
        "details": "See {IERC721-transferFrom}."
      },
      "transferOwnership(address)": {
        "details": "Transfers ownership of the contract to a new account (`newOwner`). Can only be called by the current owner."
      }
    },
    "version": 1
  },
  "userdoc": {
    "kind": "user",
    "methods": {},
    "version": 1
  },
  "storageLayout": {
    "storage": [
      {
        "astId": 3745,
        "contract": "contracts/Registrar.sol:Registrar",
        "label": "_name",
        "offset": 0,
        "slot": "0",
        "type": "t_string_storage"
      },
      {
        "astId": 3747,
        "contract": "contracts/Registrar.sol:Registrar",
        "label": "_symbol",
        "offset": 0,
        "slot": "1",
        "type": "t_string_storage"
      },
      {
        "astId": 3751,
        "contract": "contracts/Registrar.sol:Registrar",
        "label": "_owners",
        "offset": 0,
        "slot": "2",
        "type": "t_mapping(t_uint256,t_address)"
      },
      {
        "astId": 3755,
        "contract": "contracts/Registrar.sol:Registrar",
        "label": "_balances",
        "offset": 0,
        "slot": "3",
        "type": "t_mapping(t_address,t_uint256)"
      },
      {
        "astId": 3759,
        "contract": "contracts/Registrar.sol:Registrar",
        "label": "_tokenApprovals",
        "offset": 0,
        "slot": "4",
        "type": "t_mapping(t_uint256,t_address)"
      },
      {
        "astId": 3765,
        "contract": "contracts/Registrar.sol:Registrar",
        "label": "_operatorApprovals",
        "offset": 0,
        "slot": "5",
        "type": "t_mapping(t_address,t_mapping(t_address,t_bool))"
      },
      {
        "astId": 4679,
        "contract": "contracts/Registrar.sol:Registrar",
        "label": "_ownedTokens",
        "offset": 0,
        "slot": "6",
        "type": "t_mapping(t_address,t_mapping(t_uint256,t_uint256))"
      },
      {
        "astId": 4683,
        "contract": "contracts/Registrar.sol:Registrar",
        "label": "_ownedTokensIndex",
        "offset": 0,
        "slot": "7",
        "type": "t_mapping(t_uint256,t_uint256)"
      },
      {
        "astId": 4686,
        "contract": "contracts/Registrar.sol:Registrar",
        "label": "_allTokens",
        "offset": 0,
        "slot": "8",
        "type": "t_array(t_uint256)dyn_storage"
      },
      {
        "astId": 4690,
        "contract": "contracts/Registrar.sol:Registrar",
        "label": "_allTokensIndex",
        "offset": 0,
        "slot": "9",
        "type": "t_mapping(t_uint256,t_uint256)"
      },
      {
        "astId": 6173,
        "contract": "contracts/Registrar.sol:Registrar",
        "label": "_owner",
        "offset": 0,
        "slot": "10",
        "type": "t_address"
      },
      {
        "astId": 1279,
        "contract": "contracts/Registrar.sol:Registrar",
        "label": "expiries",
        "offset": 0,
        "slot": "11",
        "type": "t_mapping(t_uint256,t_uint256)"
      },
      {
        "astId": 1282,
        "contract": "contracts/Registrar.sol:Registrar",
        "label": "fns",
        "offset": 0,
        "slot": "12",
        "type": "t_contract(FNS)2943"
      },
      {
        "astId": 1284,
        "contract": "contracts/Registrar.sol:Registrar",
        "label": "baseNode",
        "offset": 0,
        "slot": "13",
        "type": "t_bytes32"
      },
      {
        "astId": 1288,
        "contract": "contracts/Registrar.sol:Registrar",
        "label": "controllers",
        "offset": 0,
        "slot": "14",
        "type": "t_mapping(t_address,t_bool)"
      },
      {
        "astId": 1295,
        "contract": "contracts/Registrar.sol:Registrar",
        "label": "names",
        "offset": 0,
        "slot": "15",
        "type": "t_mapping(t_uint256,t_string_storage)"
      },
      {
        "astId": 1297,
        "contract": "contracts/Registrar.sol:Registrar",
        "label": "_baseUri",
        "offset": 0,
        "slot": "16",
        "type": "t_string_storage"
      }
    ],
    "types": {
      "t_address": {
        "encoding": "inplace",
        "label": "address",
        "numberOfBytes": "20"
      },
      "t_array(t_uint256)dyn_storage": {
        "base": "t_uint256",
        "encoding": "dynamic_array",
        "label": "uint256[]",
        "numberOfBytes": "32"
      },
      "t_bool": {
        "encoding": "inplace",
        "label": "bool",
        "numberOfBytes": "1"
      },
      "t_bytes32": {
        "encoding": "inplace",
        "label": "bytes32",
        "numberOfBytes": "32"
      },
      "t_contract(FNS)2943": {
        "encoding": "inplace",
        "label": "contract FNS",
        "numberOfBytes": "20"
      },
      "t_mapping(t_address,t_bool)": {
        "encoding": "mapping",
        "key": "t_address",
        "label": "mapping(address => bool)",
        "numberOfBytes": "32",
        "value": "t_bool"
      },
      "t_mapping(t_address,t_mapping(t_address,t_bool))": {
        "encoding": "mapping",
        "key": "t_address",
        "label": "mapping(address => mapping(address => bool))",
        "numberOfBytes": "32",
        "value": "t_mapping(t_address,t_bool)"
      },
      "t_mapping(t_address,t_mapping(t_uint256,t_uint256))": {
        "encoding": "mapping",
        "key": "t_address",
        "label": "mapping(address => mapping(uint256 => uint256))",
        "numberOfBytes": "32",
        "value": "t_mapping(t_uint256,t_uint256)"
      },
      "t_mapping(t_address,t_uint256)": {
        "encoding": "mapping",
        "key": "t_address",
        "label": "mapping(address => uint256)",
        "numberOfBytes": "32",
        "value": "t_uint256"
      },
      "t_mapping(t_uint256,t_address)": {
        "encoding": "mapping",
        "key": "t_uint256",
        "label": "mapping(uint256 => address)",
        "numberOfBytes": "32",
        "value": "t_address"
      },
      "t_mapping(t_uint256,t_string_storage)": {
        "encoding": "mapping",
        "key": "t_uint256",
        "label": "mapping(uint256 => string)",
        "numberOfBytes": "32",
        "value": "t_string_storage"
      },
      "t_mapping(t_uint256,t_uint256)": {
        "encoding": "mapping",
        "key": "t_uint256",
        "label": "mapping(uint256 => uint256)",
        "numberOfBytes": "32",
        "value": "t_uint256"
      },
      "t_string_storage": {
        "encoding": "bytes",
        "label": "string",
        "numberOfBytes": "32"
      },
      "t_uint256": {
        "encoding": "inplace",
        "label": "uint256",
        "numberOfBytes": "32"
      }
    }
  }
}