{
  "address": "0x017896C0e02684e09f0bD9a30A97948fFd5d3B52",
  "abi": [
    {
      "inputs": [
        {
          "internalType": "contract IRegistrar",
          "name": "_base",
          "type": "address"
        },
        {
          "internalType": "contract IPriceOracle",
          "name": "_prices",
          "type": "address"
        },
        {
          "internalType": "contract IReverseRegistrar",
          "name": "_reverseRegistrar",
          "type": "address"
        }
      ],
      "stateMutability": "nonpayable",
      "type": "constructor"
    },
    {
      "inputs": [
        {
          "internalType": "uint256",
          "name": "duration",
          "type": "uint256"
        }
      ],
      "name": "DurationTooShort",
      "type": "error"
    },
    {
      "inputs": [],
      "name": "InsufficientValue",
      "type": "error"
    },
    {
      "inputs": [
        {
          "internalType": "string",
          "name": "name",
          "type": "string"
        }
      ],
      "name": "NameNotAvailable",
      "type": "error"
    },
    {
      "inputs": [],
      "name": "ResolverRequiredWhenDataSupplied",
      "type": "error"
    },
    {
      "anonymous": false,
      "inputs": [
        {
          "indexed": false,
          "internalType": "string",
          "name": "name",
          "type": "string"
        },
        {
          "indexed": true,
          "internalType": "bytes32",
          "name": "label",
          "type": "bytes32"
        },
        {
          "indexed": true,
          "internalType": "address",
          "name": "owner",
          "type": "address"
        },
        {
          "indexed": false,
          "internalType": "uint256",
          "name": "baseCost",
          "type": "uint256"
        },
        {
          "indexed": false,
          "internalType": "uint256",
          "name": "premium",
          "type": "uint256"
        },
        {
          "indexed": false,
          "internalType": "uint256",
          "name": "expires",
          "type": "uint256"
        }
      ],
      "name": "NameRegistered",
      "type": "event"
    },
    {
      "anonymous": false,
      "inputs": [
        {
          "indexed": false,
          "internalType": "string",
          "name": "name",
          "type": "string"
        },
        {
          "indexed": true,
          "internalType": "bytes32",
          "name": "label",
          "type": "bytes32"
        },
        {
          "indexed": false,
          "internalType": "uint256",
          "name": "cost",
          "type": "uint256"
        },
        {
          "indexed": false,
          "internalType": "uint256",
          "name": "expires",
          "type": "uint256"
        }
      ],
      "name": "NameRenewed",
      "type": "event"
    },
    {
      "anonymous": false,
      "inputs": [
        {
          "indexed": true,
          "internalType": "address",
          "name": "previousOwner",
          "type": "address"
        },
        {
          "indexed": true,
          "internalType": "address",
          "name": "newOwner",
          "type": "address"
        }
      ],
      "name": "OwnershipTransferred",
      "type": "event"
    },
    {
      "inputs": [],
      "name": "MIN_REGISTRATION_DURATION",
      "outputs": [
        {
          "internalType": "uint256",
          "name": "",
          "type": "uint256"
        }
      ],
      "stateMutability": "view",
      "type": "function"
    },
    {
      "inputs": [
        {
          "internalType": "string",
          "name": "name",
          "type": "string"
        }
      ],
      "name": "available",
      "outputs": [
        {
          "internalType": "bool",
          "name": "",
          "type": "bool"
        }
      ],
      "stateMutability": "view",
      "type": "function"
    },
    {
      "inputs": [],
      "name": "base",
      "outputs": [
        {
          "internalType": "contract IRegistrar",
          "name": "",
          "type": "address"
        }
      ],
      "stateMutability": "view",
      "type": "function"
    },
    {
      "inputs": [
        {
          "internalType": "string",
          "name": "name",
          "type": "string"
        }
      ],
      "name": "nameExpires",
      "outputs": [
        {
          "internalType": "uint256",
          "name": "",
          "type": "uint256"
        }
      ],
      "stateMutability": "view",
      "type": "function"
    },
    {
      "inputs": [],
      "name": "owner",
      "outputs": [
        {
          "internalType": "address",
          "name": "",
          "type": "address"
        }
      ],
      "stateMutability": "view",
      "type": "function"
    },
    {
      "inputs": [],
      "name": "prices",
      "outputs": [
        {
          "internalType": "contract IPriceOracle",
          "name": "",
          "type": "address"
        }
      ],
      "stateMutability": "view",
      "type": "function"
    },
    {
      "inputs": [
        {
          "internalType": "string",
          "name": "name",
          "type": "string"
        },
        {
          "internalType": "address",
          "name": "_owner",
          "type": "address"
        },
        {
          "internalType": "uint256",
          "name": "duration",
          "type": "uint256"
        },
        {
          "internalType": "address",
          "name": "resolver",
          "type": "address"
        },
        {
          "internalType": "bytes[]",
          "name": "data",
          "type": "bytes[]"
        },
        {
          "internalType": "bool",
          "name": "reverseRecord",
          "type": "bool"
        }
      ],
      "name": "register",
      "outputs": [],
      "stateMutability": "payable",
      "type": "function"
    },
    {
      "inputs": [
        {
          "internalType": "string",
          "name": "name",
          "type": "string"
        },
        {
          "internalType": "uint256",
          "name": "duration",
          "type": "uint256"
        }
      ],
      "name": "renew",
      "outputs": [],
      "stateMutability": "payable",
      "type": "function"
    },
    {
      "inputs": [],
      "name": "renounceOwnership",
      "outputs": [],
      "stateMutability": "nonpayable",
      "type": "function"
    },
    {
      "inputs": [
        {
          "internalType": "string",
          "name": "name",
          "type": "string"
        },
        {
          "internalType": "uint256",
          "name": "duration",
          "type": "uint256"
        }
      ],
      "name": "rentPrice",
      "outputs": [
        {
          "components": [
            {
              "internalType": "uint256",
              "name": "base",
              "type": "uint256"
            },
            {
              "internalType": "uint256",
              "name": "premium",
              "type": "uint256"
            }
          ],
          "internalType": "struct IPriceOracle.Price",
          "name": "price",
          "type": "tuple"
        }
      ],
      "stateMutability": "view",
      "type": "function"
    },
    {
      "inputs": [],
      "name": "reverseRegistrar",
      "outputs": [
        {
          "internalType": "contract IReverseRegistrar",
          "name": "",
          "type": "address"
        }
      ],
      "stateMutability": "view",
      "type": "function"
    },
    {
      "inputs": [
        {
          "internalType": "contract IPriceOracle",
          "name": "_prices",
          "type": "address"
        }
      ],
      "name": "setPriceOracle",
      "outputs": [],
      "stateMutability": "nonpayable",
      "type": "function"
    },
    {
      "inputs": [
        {
          "internalType": "bytes4",
          "name": "interfaceID",
          "type": "bytes4"
        }
      ],
      "name": "supportsInterface",
      "outputs": [
        {
          "internalType": "bool",
          "name": "",
          "type": "bool"
        }
      ],
      "stateMutability": "pure",
      "type": "function"
    },
    {
      "inputs": [
        {
          "internalType": "address",
          "name": "newOwner",
          "type": "address"
        }
      ],
      "name": "transferOwnership",
      "outputs": [],
      "stateMutability": "nonpayable",
      "type": "function"
    },
    {
      "inputs": [
        {
          "internalType": "string",
          "name": "name",
          "type": "string"
        }
      ],
      "name": "valid",
      "outputs": [
        {
          "internalType": "bool",
          "name": "",
          "type": "bool"
        }
      ],
      "stateMutability": "pure",
      "type": "function"
    },
    {
      "inputs": [],
      "name": "withdraw",
      "outputs": [],
      "stateMutability": "nonpayable",
      "type": "function"
    },
    {
      "inputs": [
        {
          "internalType": "contract IERC20",
          "name": "token",
          "type": "address"
        },
        {
          "internalType": "address",
          "name": "to",
          "type": "address"
        },
        {
          "internalType": "uint256",
          "name": "amount",
          "type": "uint256"
        }
      ],
      "name": "withdrawERC20",
      "outputs": [],
      "stateMutability": "nonpayable",
      "type": "function"
    }
  ],
  "transactionHash": "0x043a19011eb692e79cbc64cdb06617058eb93d12914eeda12ea8fd96af61d40d",
  "args": [
    "0x34bE6E7dc684D4515F7fCc5D5581809664cEBbd4",
    "0x11087e901dCF6C40772d733E0891Cd8C9e84Eba1",
    "0x77317202e1e03FdEAd3c15733b137576075F8878"
  ],
  "numDeployments": 1,
  "solcInputHash": "a6dd5ed36ca3a151ffb615c330a0b07c",
  "bytecode": "0x60c06040523480156200001157600080fd5b5060405162002fe338038062002fe38339818101604052810190620000379190620002dd565b620000576200004b6200010960201b60201c565b6200011160201b60201c565b8273ffffffffffffffffffffffffffffffffffffffff1660808173ffffffffffffffffffffffffffffffffffffffff168152505081600160006101000a81548173ffffffffffffffffffffffffffffffffffffffff021916908373ffffffffffffffffffffffffffffffffffffffff1602179055508073ffffffffffffffffffffffffffffffffffffffff1660a08173ffffffffffffffffffffffffffffffffffffffff168152505050505062000339565b600033905090565b60008060009054906101000a900473ffffffffffffffffffffffffffffffffffffffff169050816000806101000a81548173ffffffffffffffffffffffffffffffffffffffff021916908373ffffffffffffffffffffffffffffffffffffffff1602179055508173ffffffffffffffffffffffffffffffffffffffff168173ffffffffffffffffffffffffffffffffffffffff167f8be0079c531659141344cd1fd0a4f28419497f9722a3daafe3b4186f6b6457e060405160405180910390a35050565b600080fd5b600073ffffffffffffffffffffffffffffffffffffffff82169050919050565b60006200020782620001da565b9050919050565b60006200021b82620001fa565b9050919050565b6200022d816200020e565b81146200023957600080fd5b50565b6000815190506200024d8162000222565b92915050565b60006200026082620001fa565b9050919050565b620002728162000253565b81146200027e57600080fd5b50565b600081519050620002928162000267565b92915050565b6000620002a582620001fa565b9050919050565b620002b78162000298565b8114620002c357600080fd5b50565b600081519050620002d781620002ac565b92915050565b600080600060608486031215620002f957620002f8620001d5565b5b600062000309868287016200023c565b93505060206200031c8682870162000281565b92505060406200032f86828701620002c6565b9150509250925092565b60805160a051612c5a6200038960003960008181610a6b01526111790152600081816104cd015281816105fa0152818161085e01528181610ae201528181610cda0152610e430152612c5a6000f3fe6080604052600436106100fe5760003560e01c806380869853116100955780639791c097116100645780639791c09714610302578063acf1a8411461033f578063aeb8ce9b1461035b578063d3419bf314610398578063f2fde38b146103c3576100fe565b8063808698531461024457806383e7f6ff1461026f5780638a95b09f146102ac5780638da5cb5b146102d7576100fe565b80635001f3b5116100d15780635001f3b5146101bd578063530e784f146101e85780635692a2cf14610211578063715018a61461022d576100fe565b806301ffc9a71461010357806305457b3d146101405780633ccfd60b1461017d57806344004cc114610194575b600080fd5b34801561010f57600080fd5b5061012a600480360381019061012591906117d9565b6103ec565b6040516101379190611821565b60405180910390f35b34801561014c57600080fd5b5061016760048036038101906101629190611982565b6104be565b60405161017491906119e4565b60405180910390f35b34801561018957600080fd5b50610192610570565b005b3480156101a057600080fd5b506101bb60048036038101906101b69190611ac7565b6105c0565b005b3480156101c957600080fd5b506101d26105f8565b6040516101df9190611b79565b60405180910390f35b3480156101f457600080fd5b5061020f600480360381019061020a9190611bd2565b61061c565b005b61022b60048036038101906102269190611ce1565b610668565b005b34801561023957600080fd5b50610242610a55565b005b34801561025057600080fd5b50610259610a69565b6040516102669190611dd1565b60405180910390f35b34801561027b57600080fd5b5061029660048036038101906102919190611dec565b610a8d565b6040516102a39190611e86565b60405180910390f35b3480156102b857600080fd5b506102c1610be5565b6040516102ce91906119e4565b60405180910390f35b3480156102e357600080fd5b506102ec610bec565b6040516102f99190611eb0565b60405180910390f35b34801561030e57600080fd5b5061032960048036038101906103249190611982565b610c15565b6040516103369190611821565b60405180910390f35b61035960048036038101906103549190611ecb565b610c2b565b005b34801561036757600080fd5b50610382600480360381019061037d9190611982565b610e24565b60405161038f9190611821565b60405180910390f35b3480156103a457600080fd5b506103ad610ee7565b6040516103ba9190611f4c565b60405180910390f35b3480156103cf57600080fd5b506103ea60048036038101906103e59190611f67565b610f0d565b005b60007f01ffc9a7000000000000000000000000000000000000000000000000000000007bffffffffffffffffffffffffffffffffffffffffffffffffffffffff1916827bffffffffffffffffffffffffffffffffffffffffffffffffffffffff191614806104b757507f45e88940000000000000000000000000000000000000000000000000000000007bffffffffffffffffffffffffffffffffffffffffffffffffffffffff1916827bffffffffffffffffffffffffffffffffffffffffffffffffffffffff1916145b9050919050565b600080828051906020012090507f000000000000000000000000000000000000000000000000000000000000000073ffffffffffffffffffffffffffffffffffffffff1663d6e4fa868260001c6040518263ffffffff1660e01b815260040161052791906119e4565b602060405180830381865afa158015610544573d6000803e3d6000fd5b505050506040513d601f19601f820116820180604052508101906105689190611fa9565b915050919050565b610578610bec565b73ffffffffffffffffffffffffffffffffffffffff166108fc479081150290604051600060405180830381858888f193505050501580156105bd573d6000803e3d6000fd5b50565b6105c8610f90565b6105f382828573ffffffffffffffffffffffffffffffffffffffff1661100e9092919063ffffffff16565b505050565b7f000000000000000000000000000000000000000000000000000000000000000081565b610624610f90565b80600160006101000a81548173ffffffffffffffffffffffffffffffffffffffff021916908373ffffffffffffffffffffffffffffffffffffffff16021790555050565b6106b588888080601f016020809104026020016040519081016040528093929190818152602001838380828437600081840152601f19601f82011690508083019250505050505050610e24565b6106f85787876040517f477707e80000000000000000000000000000000000000000000000000000000081526004016106ef929190612014565b60405180910390fd5b6224ea0085101561074057846040517f9a71997b00000000000000000000000000000000000000000000000000000000815260040161073791906119e4565b60405180910390fd5b60008383905011801561077f5750600073ffffffffffffffffffffffffffffffffffffffff168473ffffffffffffffffffffffffffffffffffffffff16145b156107b6576040517fd3f605c400000000000000000000000000000000000000000000000000000000815260040160405180910390fd5b600061080689898080601f016020809104026020016040519081016040528093929190818152602001838380828437600081840152601f19601f8201169050808301925050505050505087610a8d565b905060008160200151826000015161081e9190612067565b90508034101561085a576040517f1101129400000000000000000000000000000000000000000000000000000000815260040160405180910390fd5b60007f000000000000000000000000000000000000000000000000000000000000000073ffffffffffffffffffffffffffffffffffffffff1663e0aade548c8c8c8c8c6040518663ffffffff1660e01b81526004016108bd95949392919061209b565b6020604051808303816000875af11580156108dc573d6000803e3d6000fd5b505050506040513d601f19601f820116820180604052508101906109009190611fa9565b905060008b8b604051610914929190612119565b6040518091039020905060008787905011156109375761093688828989611094565b5b841561098d5761098c8c8c8080601f016020809104026020016040519081016040528093929190818152602001838380828437600081840152601f19601f820116905080830192505050505050508933611177565b5b8973ffffffffffffffffffffffffffffffffffffffff16817f69e37f151eb98a09618ddaa80c8cfaf1ce5996867c489f45b555b412271ebf278e8e88600001518960200151886040516109e4959493929190612132565b60405180910390a382341115610a47573373ffffffffffffffffffffffffffffffffffffffff166108fc8434610a1a9190612180565b9081150290604051600060405180830381858888f19350505050158015610a45573d6000803e3d6000fd5b505b505050505050505050505050565b610a5d610f90565b610a67600061123e565b565b7f000000000000000000000000000000000000000000000000000000000000000081565b610a95611753565b600083805190602001209050600160009054906101000a900473ffffffffffffffffffffffffffffffffffffffff1673ffffffffffffffffffffffffffffffffffffffff166350e9a715857f000000000000000000000000000000000000000000000000000000000000000073ffffffffffffffffffffffffffffffffffffffff1663d6e4fa868560001c6040518263ffffffff1660e01b8152600401610b3c91906119e4565b602060405180830381865afa158015610b59573d6000803e3d6000fd5b505050506040513d601f19601f82011682018060405250810190610b7d9190611fa9565b866040518463ffffffff1660e01b8152600401610b9c93929190612222565b6040805180830381865afa158015610bb8573d6000803e3d6000fd5b505050506040513d601f19601f82011682018060405250810190610bdc91906122b5565b91505092915050565b6224ea0081565b60008060009054906101000a900473ffffffffffffffffffffffffffffffffffffffff16905090565b60006003610c2283611302565b10159050919050565b6000610c7b84848080601f016020809104026020016040519081016040528093929190818152602001838380828437600081840152601f19601f8201169050808301925050505050505083610a8d565b90508060000151341015610cbb576040517f1101129400000000000000000000000000000000000000000000000000000000815260040160405180910390fd5b6000808585604051610cce929190612119565b604051809103902090507f000000000000000000000000000000000000000000000000000000000000000073ffffffffffffffffffffffffffffffffffffffff1663c475abff8260001c866040518363ffffffff1660e01b8152600401610d369291906122e2565b6020604051808303816000875af1158015610d55573d6000803e3d6000fd5b505050506040513d601f19601f82011682018060405250810190610d799190611fa9565b91508260000151341115610dde573373ffffffffffffffffffffffffffffffffffffffff166108fc846000015134610db19190612180565b9081150290604051600060405180830381858888f19350505050158015610ddc573d6000803e3d6000fd5b505b807f3da24c024582931cfaf8267d8ed24d13a82a8068d5bd337d30ec45cea4e506ae87873486604051610e14949392919061230b565b60405180910390a2505050505050565b60008082805190602001209050610e3a83610c15565b8015610edf57507f000000000000000000000000000000000000000000000000000000000000000073ffffffffffffffffffffffffffffffffffffffff166396e494e88260001c6040518263ffffffff1660e01b8152600401610e9d91906119e4565b602060405180830381865afa158015610eba573d6000803e3d6000fd5b505050506040513d601f19601f82011682018060405250810190610ede9190612360565b5b915050919050565b600160009054906101000a900473ffffffffffffffffffffffffffffffffffffffff1681565b610f15610f90565b600073ffffffffffffffffffffffffffffffffffffffff168173ffffffffffffffffffffffffffffffffffffffff1603610f84576040517f08c379a0000000000000000000000000000000000000000000000000000000008152600401610f7b906123ff565b60405180910390fd5b610f8d8161123e565b50565b610f986114b7565b73ffffffffffffffffffffffffffffffffffffffff16610fb6610bec565b73ffffffffffffffffffffffffffffffffffffffff161461100c576040517f08c379a00000000000000000000000000000000000000000000000000000000081526004016110039061246b565b60405180910390fd5b565b61108f8363a9059cbb60e01b848460405160240161102d92919061248b565b604051602081830303815290604052907bffffffffffffffffffffffffffffffffffffffffffffffffffffffff19166020820180517bffffffffffffffffffffffffffffffffffffffffffffffffffffffff83818316178352505050506114bf565b505050565b60007f78f6b1389af563cc5c91f234ea46b055e49658d8b999eeb9e0baef7dbbc93fdb60001b846040516020016110cc9291906124df565b60405160208183030381529060405280519060200120905060008590508073ffffffffffffffffffffffffffffffffffffffff1663e32954eb8386866040518463ffffffff1660e01b81526004016111269392919061267e565b6000604051808303816000875af1158015611145573d6000803e3d6000fd5b505050506040513d6000823e3d601f19601f8201168201806040525081019061116e9190612832565b50505050505050565b7f000000000000000000000000000000000000000000000000000000000000000073ffffffffffffffffffffffffffffffffffffffff16637a806d6b338385876040516020016111c791906128dd565b6040516020818303038152906040526040518563ffffffff1660e01b81526004016111f59493929190612903565b6020604051808303816000875af1158015611214573d6000803e3d6000fd5b505050506040513d601f19601f82011682018060405250810190611238919061297b565b50505050565b60008060009054906101000a900473ffffffffffffffffffffffffffffffffffffffff169050816000806101000a81548173ffffffffffffffffffffffffffffffffffffffff021916908373ffffffffffffffffffffffffffffffffffffffff1602179055508173ffffffffffffffffffffffffffffffffffffffff168173ffffffffffffffffffffffffffffffffffffffff167f8be0079c531659141344cd1fd0a4f28419497f9722a3daafe3b4186f6b6457e060405160405180910390a35050565b60008060008084519050600092505b808210156114ac57600085838151811061132e5761132d6129a8565b5b602001015160f81c60f81b9050608060f81b817effffffffffffffffffffffffffffffffffffffffffffffffffffffffffffff1916101561137d576001836113769190612067565b9250611498565b60e060f81b817effffffffffffffffffffffffffffffffffffffffffffffffffffffffffffff191610156113bf576002836113b89190612067565b9250611497565b60f060f81b817effffffffffffffffffffffffffffffffffffffffffffffffffffffffffffff19161015611401576003836113fa9190612067565b9250611496565b60f8801b817effffffffffffffffffffffffffffffffffffffffffffffffffffffffffffff191610156114425760048361143b9190612067565b9250611495565b60fc60f81b817effffffffffffffffffffffffffffffffffffffffffffffffffffffffffffff191610156114845760058361147d9190612067565b9250611494565b6006836114919190612067565b92505b5b5b5b5b5082806114a4906129d7565b935050611311565b829350505050919050565b600033905090565b6000611521826040518060400160405280602081526020017f5361666545524332303a206c6f772d6c6576656c2063616c6c206661696c65648152508573ffffffffffffffffffffffffffffffffffffffff166115869092919063ffffffff16565b905060008151111561158157808060200190518101906115419190612360565b611580576040517f08c379a000000000000000000000000000000000000000000000000000000000815260040161157790612a91565b60405180910390fd5b5b505050565b6060611595848460008561159e565b90509392505050565b6060824710156115e3576040517f08c379a00000000000000000000000000000000000000000000000000000000081526004016115da90612b23565b60405180910390fd5b6000808673ffffffffffffffffffffffffffffffffffffffff16858760405161160c9190612b7f565b60006040518083038185875af1925050503d8060008114611649576040519150601f19603f3d011682016040523d82523d6000602084013e61164e565b606091505b509150915061165f8783838761166b565b92505050949350505050565b606083156116cd5760008351036116c557611685856116e0565b6116c4576040517f08c379a00000000000000000000000000000000000000000000000000000000081526004016116bb90612be2565b60405180910390fd5b5b8290506116d8565b6116d78383611703565b5b949350505050565b6000808273ffffffffffffffffffffffffffffffffffffffff163b119050919050565b6000825111156117165781518083602001fd5b806040517f08c379a000000000000000000000000000000000000000000000000000000000815260040161174a9190612c02565b60405180910390fd5b604051806040016040528060008152602001600081525090565b6000604051905090565b600080fd5b600080fd5b60007fffffffff0000000000000000000000000000000000000000000000000000000082169050919050565b6117b681611781565b81146117c157600080fd5b50565b6000813590506117d3816117ad565b92915050565b6000602082840312156117ef576117ee611777565b5b60006117fd848285016117c4565b91505092915050565b60008115159050919050565b61181b81611806565b82525050565b60006020820190506118366000830184611812565b92915050565b600080fd5b600080fd5b6000601f19601f8301169050919050565b7f4e487b7100000000000000000000000000000000000000000000000000000000600052604160045260246000fd5b61188f82611846565b810181811067ffffffffffffffff821117156118ae576118ad611857565b5b80604052505050565b60006118c161176d565b90506118cd8282611886565b919050565b600067ffffffffffffffff8211156118ed576118ec611857565b5b6118f682611846565b9050602081019050919050565b82818337600083830152505050565b6000611925611920846118d2565b6118b7565b90508281526020810184848401111561194157611940611841565b5b61194c848285611903565b509392505050565b600082601f8301126119695761196861183c565b5b8135611979848260208601611912565b91505092915050565b60006020828403121561199857611997611777565b5b600082013567ffffffffffffffff8111156119b6576119b561177c565b5b6119c284828501611954565b91505092915050565b6000819050919050565b6119de816119cb565b82525050565b60006020820190506119f960008301846119d5565b92915050565b600073ffffffffffffffffffffffffffffffffffffffff82169050919050565b6000611a2a826119ff565b9050919050565b6000611a3c82611a1f565b9050919050565b611a4c81611a31565b8114611a5757600080fd5b50565b600081359050611a6981611a43565b92915050565b611a7881611a1f565b8114611a8357600080fd5b50565b600081359050611a9581611a6f565b92915050565b611aa4816119cb565b8114611aaf57600080fd5b50565b600081359050611ac181611a9b565b92915050565b600080600060608486031215611ae057611adf611777565b5b6000611aee86828701611a5a565b9350506020611aff86828701611a86565b9250506040611b1086828701611ab2565b9150509250925092565b6000819050919050565b6000611b3f611b3a611b35846119ff565b611b1a565b6119ff565b9050919050565b6000611b5182611b24565b9050919050565b6000611b6382611b46565b9050919050565b611b7381611b58565b82525050565b6000602082019050611b8e6000830184611b6a565b92915050565b6000611b9f82611a1f565b9050919050565b611baf81611b94565b8114611bba57600080fd5b50565b600081359050611bcc81611ba6565b92915050565b600060208284031215611be857611be7611777565b5b6000611bf684828501611bbd565b91505092915050565b600080fd5b600080fd5b60008083601f840112611c1f57611c1e61183c565b5b8235905067ffffffffffffffff811115611c3c57611c3b611bff565b5b602083019150836001820283011115611c5857611c57611c04565b5b9250929050565b60008083601f840112611c7557611c7461183c565b5b8235905067ffffffffffffffff811115611c9257611c91611bff565b5b602083019150836020820283011115611cae57611cad611c04565b5b9250929050565b611cbe81611806565b8114611cc957600080fd5b50565b600081359050611cdb81611cb5565b92915050565b60008060008060008060008060c0898b031215611d0157611d00611777565b5b600089013567ffffffffffffffff811115611d1f57611d1e61177c565b5b611d2b8b828c01611c09565b98509850506020611d3e8b828c01611a86565b9650506040611d4f8b828c01611ab2565b9550506060611d608b828c01611a86565b945050608089013567ffffffffffffffff811115611d8157611d8061177c565b5b611d8d8b828c01611c5f565b935093505060a0611da08b828c01611ccc565b9150509295985092959890939650565b6000611dbb82611b46565b9050919050565b611dcb81611db0565b82525050565b6000602082019050611de66000830184611dc2565b92915050565b60008060408385031215611e0357611e02611777565b5b600083013567ffffffffffffffff811115611e2157611e2061177c565b5b611e2d85828601611954565b9250506020611e3e85828601611ab2565b9150509250929050565b611e51816119cb565b82525050565b604082016000820151611e6d6000850182611e48565b506020820151611e806020850182611e48565b50505050565b6000604082019050611e9b6000830184611e57565b92915050565b611eaa81611a1f565b82525050565b6000602082019050611ec56000830184611ea1565b92915050565b600080600060408486031215611ee457611ee3611777565b5b600084013567ffffffffffffffff811115611f0257611f0161177c565b5b611f0e86828701611c09565b93509350506020611f2186828701611ab2565b9150509250925092565b6000611f3682611b46565b9050919050565b611f4681611f2b565b82525050565b6000602082019050611f616000830184611f3d565b92915050565b600060208284031215611f7d57611f7c611777565b5b6000611f8b84828501611a86565b91505092915050565b600081519050611fa381611a9b565b92915050565b600060208284031215611fbf57611fbe611777565b5b6000611fcd84828501611f94565b91505092915050565b600082825260208201905092915050565b6000611ff38385611fd6565b9350612000838584611903565b61200983611846565b840190509392505050565b6000602082019050818103600083015261202f818486611fe7565b90509392505050565b7f4e487b7100000000000000000000000000000000000000000000000000000000600052601160045260246000fd5b6000612072826119cb565b915061207d836119cb565b925082820190508082111561209557612094612038565b5b92915050565b600060808201905081810360008301526120b6818789611fe7565b90506120c56020830186611ea1565b6120d260408301856119d5565b6120df6060830184611ea1565b9695505050505050565b600081905092915050565b600061210083856120e9565b935061210d838584611903565b82840190509392505050565b60006121268284866120f4565b91508190509392505050565b6000608082019050818103600083015261214d818789611fe7565b905061215c60208301866119d5565b61216960408301856119d5565b61217660608301846119d5565b9695505050505050565b600061218b826119cb565b9150612196836119cb565b92508282039050818111156121ae576121ad612038565b5b92915050565b600081519050919050565b60005b838110156121dd5780820151818401526020810190506121c2565b60008484015250505050565b60006121f4826121b4565b6121fe8185611fd6565b935061220e8185602086016121bf565b61221781611846565b840191505092915050565b6000606082019050818103600083015261223c81866121e9565b905061224b60208301856119d5565b61225860408301846119d5565b949350505050565b600080fd5b60006040828403121561227b5761227a612260565b5b61228560406118b7565b9050600061229584828501611f94565b60008301525060206122a984828501611f94565b60208301525092915050565b6000604082840312156122cb576122ca611777565b5b60006122d984828501612265565b91505092915050565b60006040820190506122f760008301856119d5565b61230460208301846119d5565b9392505050565b60006060820190508181036000830152612326818688611fe7565b905061233560208301856119d5565b61234260408301846119d5565b95945050505050565b60008151905061235a81611cb5565b92915050565b60006020828403121561237657612375611777565b5b60006123848482850161234b565b91505092915050565b7f4f776e61626c653a206e6577206f776e657220697320746865207a65726f206160008201527f6464726573730000000000000000000000000000000000000000000000000000602082015250565b60006123e9602683611fd6565b91506123f48261238d565b604082019050919050565b60006020820190508181036000830152612418816123dc565b9050919050565b7f4f776e61626c653a2063616c6c6572206973206e6f7420746865206f776e6572600082015250565b6000612455602083611fd6565b91506124608261241f565b602082019050919050565b6000602082019050818103600083015261248481612448565b9050919050565b60006040820190506124a06000830185611ea1565b6124ad60208301846119d5565b9392505050565b6000819050919050565b6000819050919050565b6124d96124d4826124b4565b6124be565b82525050565b60006124eb82856124c8565b6020820191506124fb82846124c8565b6020820191508190509392505050565b612514816124b4565b82525050565b600082825260208201905092915050565b6000819050919050565b600082825260208201905092915050565b60006125528385612535565b935061255f838584611903565b61256883611846565b840190509392505050565b6000612580848484612546565b90509392505050565b600080fd5b600080fd5b600080fd5b600080833560016020038436030381126125b5576125b4612593565b5b83810192508235915060208301925067ffffffffffffffff8211156125dd576125dc612589565b5b6001820236038313156125f3576125f261258e565b5b509250929050565b6000602082019050919050565b6000612614838561251a565b9350836020840285016126268461252b565b8060005b8781101561266c5784840389526126418284612598565b61264c868284612573565b9550612657846125fb565b935060208b019a50505060018101905061262a565b50829750879450505050509392505050565b6000604082019050612693600083018661250b565b81810360208301526126a6818486612608565b9050949350505050565b600067ffffffffffffffff8211156126cb576126ca611857565b5b602082029050602081019050919050565b600067ffffffffffffffff8211156126f7576126f6611857565b5b61270082611846565b9050602081019050919050565b600061272061271b846126dc565b6118b7565b90508281526020810184848401111561273c5761273b611841565b5b6127478482856121bf565b509392505050565b600082601f8301126127645761276361183c565b5b815161277484826020860161270d565b91505092915050565b600061279061278b846126b0565b6118b7565b905080838252602082019050602084028301858111156127b3576127b2611c04565b5b835b818110156127fa57805167ffffffffffffffff8111156127d8576127d761183c565b5b8086016127e5898261274f565b855260208501945050506020810190506127b5565b5050509392505050565b600082601f8301126128195761281861183c565b5b815161282984826020860161277d565b91505092915050565b60006020828403121561284857612847611777565b5b600082015167ffffffffffffffff8111156128665761286561177c565b5b61287284828501612804565b91505092915050565b600081905092915050565b6000612891826121b4565b61289b818561287b565b93506128ab8185602086016121bf565b80840191505092915050565b7f2e66696c00000000000000000000000000000000000000000000000000000000815250565b60006128e98284612886565b91506128f4826128b7565b60048201915081905092915050565b60006080820190506129186000830187611ea1565b6129256020830186611ea1565b6129326040830185611ea1565b818103606083015261294481846121e9565b905095945050505050565b612958816124b4565b811461296357600080fd5b50565b6000815190506129758161294f565b92915050565b60006020828403121561299157612990611777565b5b600061299f84828501612966565b91505092915050565b7f4e487b7100000000000000000000000000000000000000000000000000000000600052603260045260246000fd5b60006129e2826119cb565b91507fffffffffffffffffffffffffffffffffffffffffffffffffffffffffffffffff8203612a1457612a13612038565b5b600182019050919050565b7f5361666545524332303a204552433230206f7065726174696f6e20646964206e60008201527f6f74207375636365656400000000000000000000000000000000000000000000602082015250565b6000612a7b602a83611fd6565b9150612a8682612a1f565b604082019050919050565b60006020820190508181036000830152612aaa81612a6e565b9050919050565b7f416464726573733a20696e73756666696369656e742062616c616e636520666f60008201527f722063616c6c0000000000000000000000000000000000000000000000000000602082015250565b6000612b0d602683611fd6565b9150612b1882612ab1565b604082019050919050565b60006020820190508181036000830152612b3c81612b00565b9050919050565b600081519050919050565b6000612b5982612b43565b612b6381856120e9565b9350612b738185602086016121bf565b80840191505092915050565b6000612b8b8284612b4e565b915081905092915050565b7f416464726573733a2063616c6c20746f206e6f6e2d636f6e7472616374000000600082015250565b6000612bcc601d83611fd6565b9150612bd782612b96565b602082019050919050565b60006020820190508181036000830152612bfb81612bbf565b9050919050565b60006020820190508181036000830152612c1c81846121e9565b90509291505056fea264697066735822122079dc767165c07c690c631aed3cb095727e5cf7dd8c768bceebcafad506eadde164736f6c63430008110033",
  "devdoc": {
    "details": "A registrar controller for registering and renewing names at fixed cost.",
    "kind": "dev",
    "methods": {
      "owner()": {
        "details": "Returns the address of the current owner."
      },
      "renounceOwnership()": {
        "details": "Leaves the contract without owner. It will not be possible to call `onlyOwner` functions anymore. Can only be called by the current owner. NOTE: Renouncing ownership will leave the contract without an owner, thereby removing any functionality that is only available to the owner."
      },
      "transferOwnership(address)": {
        "details": "Transfers ownership of the contract to a new account (`newOwner`). Can only be called by the current owner."
      }
    },
    "version": 1
  },
  "userdoc": {
    "kind": "user",
    "methods": {},
    "version": 1
  },
  "storageLayout": {
    "storage": [
      {
        "astId": 6173,
        "contract": "contracts/RegistrarController.sol:RegistrarController",
        "label": "_owner",
        "offset": 0,
        "slot": "0",
        "type": "t_address"
      },
      {
        "astId": 1887,
        "contract": "contracts/RegistrarController.sol:RegistrarController",
        "label": "prices",
        "offset": 0,
        "slot": "1",
        "type": "t_contract(IPriceOracle)2987"
      }
    ],
    "types": {
      "t_address": {
        "encoding": "inplace",
        "label": "address",
        "numberOfBytes": "20"
      },
      "t_contract(IPriceOracle)2987": {
        "encoding": "inplace",
        "label": "contract IPriceOracle",
        "numberOfBytes": "20"
      }
    }
  }
}